:100000001AC034C033C032C031C030C0D3C02EC0DB
:100010002DC02CC02BC049C029C028C027C026C075
:1000200025C024C023C011C237C251C273C289C2C5
:10003000B8C1D9C1FFC111241FBECFE5D4E0DEBFD6
:10004000CDBF11E0A0E6B0E0E4E3F8E002C0059027
:100050000D92A238B107D9F721E0A2E8B1E001C0C2
:100060001D92A23DB207E1F763D3E2C3C9CF20914D
:10007000600030916100C901817099279195819547
:1000800091098827947B369527958227932790930B
:10009000610080936000089510BC87E189B9599888
:1000A00080E98AB986E080BD08951F920F920FB64D
:1000B0000F9211248F939F93AF93BF93EF93FF936E
:1000C0008CB187FD31C090918F011916B4F4E09185
:1000D0008E01E0938D0180938E01915090938F015A
:1000E000992369F0FF91EF91BF91AF919F918F910B
:1000F0000F900FBE0F901F901895E0918D01809189
:100100009001823071F18330F1F0813059F78091A4
:100110006300E81305C0109264008FEF80936300C2
:1001200082E080938F01DECF91E090939101807FF8
:100130008039D1F1803B59F1803881F110929001E2
:1001400010928F01CFCFE93068F680918E0187FD44
:10015000C9CF97E0E99FF0011124EE56FE4F868348
:10016000C1CF80918E01882391F281E08093640059
:10017000AE2FB0E0AA0FBB1FA159BF4F8D919C912C
:1001800090936E0080936D00E0936300C9CF83E08D
:100190008093900182E080938F01A4CF909390018F
:1001A00082E080938F019ECF82E0809390018093C4
:1001B0008F0198CF1F920F920FB60F9211242F9399
:1001C0003F938F939F9380916600873089F12091B0
:1001D00083013091840180918301909184019695EF
:1001E0008795909384018093830120FF13C08091B1
:1001F000830190918401906890938401809383019E
:1002000091E080916200209164008223892331F083
:10021000C09A05C08091620080916400C0989F914F
:100220008F913F912F910F900FBE0F901F901895B7
:100230002091600030916100C901817099279195EA
:10024000819591098827947B369527958227932756
:100250009093610080936000982F9170D2CF0F939C
:100260001F93FC0134B185B1268127FD0CC030E01D
:10027000220F331F220F331F220F331F318320839E
:100280001F910F91089590E0982F8827830F911D5B
:1002900042815381648175818A019B01080F191F76
:1002A000211D311DD901C8010283138324833583A5
:1002B0002091D1012111E4CF25E0B695A79597951E
:1002C00087952A95D1F791838083128213821482B5
:1002D00015821F910F91089580919101882339F122
:1002E0002091880130918901220F331F220F331F83
:1002F00080916D0090916E00821B930B20918B0179
:1003000030918C018217930789F090938C01809330
:100310008B012CB53DB58217930730F41DBC1CBC76
:1003200080918B0190918C019BBD8ABD0895809135
:100330006D0090916E00C2962091880130918901E4
:10034000821B930B880F991F880F991FD7CFE091BD
:1003500065008E2F90E088309105E8F080918A0149
:1003600090E020916B0030916C00369527958217B4
:100370009307B8F1C29880918A018F5F80938A01B8
:1003800090E020916B0030916C008217930710F081
:1003900010928A010895FC01ED5EFF4F80918A0161
:1003A000099490E020916B0030916C003695279570
:1003B0008217930708F0E1C04091860150918701B0
:1003C000849F9001859F300D949F300D1124C901A9
:1003D000880F892F881F990B91959093890180939D
:1003E0008801C29AC8CF90E020916B0030916C00D8
:1003F000369527958217930708F0BFC04091860174
:1004000050918701849F9001859F300D949F300DFE
:100410001124220F232F221F330B31958091690065
:1004200090916A00821B930B9093890180938801BD
:10043000C29AA1CF882309F4ABC090E020916B0051
:1004400030916C003695279592CF90E040918601CF
:1004500050918701849F9001859F300D949F300DAE
:100460001124232F33273093890120938801409151
:100470006B0050916C00569547958417950708F4CA
:10048000B0CF8091690090916A00821B930B90938A
:100490008901809388016ECF90E040918601509150
:1004A0008701849F9001859F300D949F300D11240A
:1004B000309388011092890120916B0030916C007B
:1004C000369527958217930708F054CF8ACF90E08E
:1004D0002091860130918701829FA001839F500D5A
:1004E000929F500D1124452F55272091690030917E
:1004F0006A00241B350B30938901209388012091D9
:100500006B0030916C00369527958217930708F0A1
:1005100031CF67CF90E020916B0030916C00369521
:1005200027958217930770F14091690050916A00F6
:1005300050938901409388018217930708F01ACFDE
:1005400050CF90E020916B0030916C00A90156953E
:1005500047955695479584179507B8F440916900DB
:1005600050916A00509389014093880136952795F0
:100570008217930708F0FECE34CF109289011092B3
:100580008801F8CE40E050E0D3CF40E050E0EACF21
:100590002091600030916100C90181709927919587
:1005A000819591098827947B3695279582279327F3
:1005B00090936100809360006091690070916A007F
:1005C00023D1909389018093880120916B00309111
:1005D0006C003695279580E090E0C9CE809185012A
:1005E0008F5F8093850190916800891718F01092B1
:1005F000850180E091E020916700281708F490E0E1
:100600009093620080916200811102C0C3980895A6
:10061000C39A089580919101811108C0809192013F
:100620009091930190936E0080936D008091B5013D
:100630009091B601880F892F881F990B9195209171
:100640006600281709F461C080936600E091660097
:10065000F0E0EE0FFF1FE159FE4F808191819093F2
:1006600084018093830181E0809382018091AE01B7
:100670009091AF01880F892F881F990B91959091C8
:100680006500891729F08093650081E080938201DD
:10069000C498809182018150809382016091A00171
:1006A0007091A101769567957695679570936C002A
:1006B00060936B008091A7019091A8019695879512
:1006C0009695879590936A008093690061157105EE
:1006D00019F0982F80E098D070938701609386017D
:1006E0008091BC019091BD019695879596958795CF
:1006F000809368008091990190919A0196958795D1
:10070000969587958093670008958091AE019091AA
:10071000AF01880F892F881F990B919590916500E3
:100720008913B1CF809182018111B2CFC49AB6CF23
:10073000B89A87B38C6187BB80E281BB8D98959A0C
:100740008F98979AE8E9F1E08FEF8083379691E0F0
:10075000E73DF907D1F7C49A8EB588608EBD89B799
:10076000806189BF86B1876086B9379A10BC87E1FE
:1007700089B9599880E98AB986E080BD789482E089
:100780008093650084E080936600E0916600F0E06D
:10079000EE0FFF1FE159FE4F8081918190938401FC
:1007A0008093830199DD8EB582608EBD1092D10158
:1007B0008091D1018F5F8093D1018091D1018F71A0
:1007C0008093D101959802E911E0C0E08C2F8064FC
:1007D00087B9369A3699FECFC80141DDCF5F095FF0
:1007E0001F4FC63099F7959A8091D101882351F017
:1007F000AEDDF4DE71DD8BE291E00197F1F700C030
:100800000000D6CF07DFF4CFAA1BBB1B51E107C006
:10081000AA1FBB1FA617B70710F0A61BB70B881F90
:10082000991F5A95A9F780959095BC01CD0108951F
:04083000F894FFCF6A
:10083400E1AC01FF0108032137170016005802FF3D
:10084400FFFFFFFFFFFFFFFFFFFFFF61FD28EFBC7E
:10085400E110D51BC9D1BD2AB31CA99E9FA896340B
:100864008E3886B07E9477DD70886A8D64E85E95F4
:10087400598D54CE4F544B19471C43573FC93B6EB7
:100884003843354632742FCA2C462AE727A9258CCB
:10089400238D21AB1FE41D371CA11A2319B917643A
:1008A400162315F313D412C611C610D50FF20E1B5E
:1008B4000E500D910CDC0B320B910AF9096A09E216
:1008C400086308EA0778070D07A8064806EE0598A6
:1008D400054805FC04B40471043104F503BC038623
:1008E4000353032303F602CC02A3027D025A023807
:1008F400021802FA01DD01C201A90191017B01651F
:100904000151013E012C011B010B01FC00EE00E131
:1009140000D400C800BD00B200A8009F0096008D5E
:100924000085007E00770070006A0064005E005954
:100934000054004F004A00460042003E003B0000C5
:10094400C000FFEFEFDBB67628D5AAAAAA00000004
:020954000000A1
:00000001FF
