:100000000C944D000C946A000C946A000C946A00E5
:100010000C946A000C946A000C946A000C946A00B8
:100020000C946A000C946A000C946A000C94080406
:100030000C946A000C946A000C946A000C946A0098
:100040000C946A000C946A000C9496030C946A0059
:100050000C946A000C946A000C946A000C946A0078
:100060000C946A000C946A00BC04D904E704F304FD
:10007000FE041205330554054546476566670020B2
:100080002B2D2E3031323334353637383968006312
:1000900064696E6F70737578580011241FBECFEFBE
:1000A000D8E0DEBFCDBF12E0A0E0B1E0ECE1F0E1CE
:1000B00002C005900D92AA31B107D9F722E0AAE15A
:1000C000B2E001C01D92A836B207E1F70E942706F0
:1000D0000C940C080C940000ACE0B0E0E2E7F0E017
:1000E0000C94D5066C015B017A01FC011782168223
:1000F000838181FF0EC1CE0101964C01F60103817F
:10010000F50103FD159103FF11915F01112309F41E
:10011000FCC0153249F403FD159103FF11915F01F5
:10012000153211F020E01BC0B601812F90E00E9433
:100130005A0737017301E2CF112309F4E6C0612F9A
:1001400070E08FE790E02C870E9411072C85892BA7
:1001500049F0F50103FD159103FF11915F0127FFA0
:10016000EBCF09C0133229F01C3609F0D5C0206846
:10017000F0CF20E1EECF022F112309F4C6C0612F8A
:1001800070E088E790E02C870E9411072C85892B6E
:1001900041F03701F4E06F0E711CB6018FE390E07F
:1001A00011C0133639F0133781F0133519F5022FCA
:1001B00001600BC0370182E0680E711CB601F701C7
:1001C000808191810E945A07B5CF3701F2E06F0E0E
:1001D000711CF701E080F180F70100FD859100FFBF
:1001E00081917F01882309F4A5CFB60190E00E9498
:1001F0005A07F2CF143611F0193629F5370127FFC7
:1002000009C0F4E06F0E711CF70160817181828179
:1002100093810AC0F2E06F0E711CF7016081718159
:10022000072E000C880B990B022F0F7E97FF08C03A
:1002300090958095709561957F4F8F4F9F4F00648B
:100240002AE030E033C0103799F040F41835B1F0AF
:100250001F3609F05AC028E030E014C0153719F0F5
:10026000183741F052C0022F0F7E2AE030E00AC05A
:10027000022F0061046220E130E004C0022F04601C
:1002800020E132E0370107FF09C0F4E06F0E711C76
:10029000F701608171818281938108C0F2E06F0E65
:1002A000711CF7016081718180E090E0A4010E94DF
:1002B000AB07182F181906FF05C0B6018DE290E0B4
:1002C0000E945A0704FF15C0FE01E10FF11D808155
:1002D000803379F0B60180E390E00E945A0702FF74
:1002E00008C00072802F90E0B601885A9F4F0E948C
:1002F0005A071150F401E10FF11D8081B60190E021
:100300000E945A071111F5CF15CFF601868197810A
:1003100005C08FEF9FEF02C0022F31CF2C96EEE089
:100320000C94F10620FD09C0FC0123FD05C022FF4D
:1003300002C07383628351834083089544FD10C0DB
:1003400046FD10C0DB01FC01AA0FBB1FEE1FFF1F03
:100350001094D1F76A0F7B1F8E1F9F1F31E003C0DF
:1003600033E001C034E0660F771F881F991F3150BA
:10037000D1F7620F711D811D911D08950F931F9379
:10038000CF93DF938C01C8010E941C07EC0197FDFD
:1003900008C00E940807892BB1F7B801CE010E945E
:1003A0009207CE01DF91CF911F910F910895A1E0A7
:1003B000B0E0EDEDF1E00C94D7068C01C62E7A0189
:1003C00029830E941C07AC01552729814B32510516
:1003D00021F04D32510569F42068CA94C11002C061
:1003E00080E076C0C80129830E941C07298197FDFF
:1003F000F7CF322F3D7FD32E322F307349F5803324
:1004000039F5BB24BA94BC0C09F44EC0C801298349
:100410000E941C07298197FD47C0382F3F7D383542
:1004200069F48D2D8264D82ECA94CA94CC20E1F14F
:10043000C8010E941C0797FF0BC036C026FF04C0EE
:100440002D2D2260D22E03C03D2D3261D32ECB2C18
:10045000812C912C540120ED280F283080F0D4FEFF
:1004600004C0B8010E9492071CC02A3040F0D6FE9A
:10047000F8CF2F7D3FEE320F363098F727504D2DB5
:10048000C501B4010E949E014B015C018D2D82606B
:10049000D82ECA94CC2059F0C8010E941C0797FF9F
:1004A000DACFD1FC04C09CCF812C912C5401D7FE13
:1004B00008C0B094A09490948094811C911CA11CBD
:1004C000B11C2D2DB501A401C7010E94920181E04C
:1004D0002196ECE00C94F306A1E0B0E0E2E7F2E054
:1004E0000C94D3067C012B015A01FC011782168261
:1004F000812CF7017380F20173FC859173FE819169
:10050000382F2F01882309F4E2C090E039830E943C
:1005100008073981892B21F0C7010E94BE01E9CF6C
:10052000353241F4F20173FC359173FE31912F01A4
:10053000353269F4C70139830E941C07398197FD60
:10054000C4C03817B1F2B7010E949207C0C03A3256
:1005500039F473FC359173FE31912F0111E001C024
:1005600010E0620160E020ED230F2A3070F4126089
:1005700070E080E090E040E20E949E01F60173FC92
:10058000359173FE31916F01EECF962E032F260128
:1005900011FF03C0611103C09AC099249A943836A0
:1005A00019F03C3651F010C0F60173FC059173FE52
:1005B00001912F01083641F418601460F20173FCB8
:1005C000059173FE01912F01002309F480C0602F73
:1005D00070E08FE890E00E941107892B09F477C042
:1005E00010FD07C0F501C080D180C50102965C01F5
:1005F00002C0C12CD12C0E3651F4F701468157812F
:1006000060E070E0212FC6010E94920172CF033694
:10061000A9F411FD02C099249394C7010E941C07FC
:1006200097FD53C0C114D10429F0F6018083C6019F
:1006300001966C019A949110F0CF43C0C7010E94BB
:10064000BE0197FD42C00F3661F128F4043639F13E
:10065000093651F128C0033771F0053701F123C085
:10066000C114D10429F0F6016082C60101966C0123
:100670009A94992071F0C7010E941C073C0197FDD4
:1006800008C00E940807892B59F3B701C3010E94D3
:100690009207C114D104A9F0F601108212C01062B1
:1006A00003C0106101C01064212FA601692DC7018C
:1006B0000E94D701811105C0F7018381807329F45D
:1006C00006C010FD16CF839414CF882019F0882D12
:1006D00090E002C08FEF9FEF2196E0E10C94EF06CF
:1006E0002091000130910101C901817099279195F4
:1006F000819591098827947B3695279582279327A2
:10070000909301018093000108951092C50087E144
:100710008093C400E0ECF0E080818D7F808380E9ED
:100720008093C10086E08093C20008951F920F92CB
:100730000FB60F9211242F933F938F939F93EF93B4
:10074000FF938091C60087FF17C091E09093290224
:100750008C3FB1F140F4803861F0803999F582E046
:10076000809328022AC08E3F09F447C08F3F41F191
:1007700029C09093280220C09091270219164CF4AA
:100780002091260220932502809326029150909377
:10079000270280912702181684F1809125029091FA
:1007A00028029130A1F490910301891305C01092A1
:1007B00004018FEF8093030182E0809327021DC024
:1007C00010920401109228021092270216C0923053
:1007D000A1F490912602992331F391E090930401C2
:1007E000E82FF0E0EE0FFF1FE85FFE4F2081318120
:1007F0003093070120930601DDCFFF91EF919F9188
:100800008F913F912F910F900FBE0F901F901895D1
:100810001F920F920FB60F9211242F933F934F9375
:100820005F936F937F938F939F93AF93BF93EF9358
:10083000FF9380912A028730E9F020911B023091CA
:100840001C0280911B0290911C02969587959093B3
:100850001C0280931B02822F817020FF0EC08091AA
:100860001B0290911C02906890931C0280931B02C3
:1008700081E003C00E947003817090910201209179
:1008800004019223892311F0289A01C02898FF912E
:10089000EF91BF91AF919F918F917F916F915F91F8
:1008A0004F913F912F910F900FBE0F901F90189571
:1008B000FC01809178002091790030E0322F2227CE
:1008C000280F311D4281538164817581420F531F6E
:1008D000611D711D42835383648375838091670218
:1008E00081110DC085E076956795579547958A9556
:1008F000D1F75183408312821382148215820895A6
:100900002091200230912102220F331F220F331F2A
:100910008091060190910701821B930B2091230285
:100920003091240282179307B9F0909324028093A8
:10093000230220918400309185008217930720F4D0
:1009400010928500109284008091230290912402DD
:1009500090938900809388000895E09105018E2F7F
:1009600090E08830910508F0ADC0FC01EC5CFF4FD1
:10097000809122020C94CB0690E040911E0250918F
:100980001F02849F9001859F300D949F300D11248C
:10099000232F3327309321022093200240912F02EE
:1009A00050913002569547958417950708F48AC0F0
:1009B00074C040911E0250911F02849F9001859F38
:1009C000300D112430932002109221027BC04091FF
:1009D0001E0250911F02849F9001859F300D1124AB
:1009E000232F33275AC090E020912F0230913002FC
:1009F000369527958217930790F00CC090E02091D0
:100A00002F0230913002369527953695279582171B
:100A1000930728F480912D0290912E024FC080E020
:100A200090E04CC090E020912F023091300236953A
:100A300027958217930790F440911E0250911F0250
:100A4000849F9001859F300D949F300D1124C90122
:100A5000880F892F881F990B919530C01092210221
:100A6000109220022FC090E020912F02309130028E
:100A7000369527958217930788F740911E0250916B
:100A80001F02849F9001859F300D949F300D11248B
:100A9000220F232F221F330B319580912D0290912D
:100AA0002E02821B930B0AC081110CC00E9470039E
:100AB00060912D0270912E020E94B7069093210240
:100AC000809320022091220230E080912F029091A9
:100AD0003002969587952817390710F42A9A01C095
:100AE0002A98809122028F5F8093220290E02091C9
:100AF0002F02309130028217930710F010922202D9
:100B0000089580911D028F5F80931D0290912C02A9
:100B1000891710F010921D0281E020911D02909122
:100B20002B02921708F480E0809302018091020169
:100B3000882311F02B9A08952B980895809129020B
:100B4000811110C0E0914902F0914A02E770FF273D
:100B5000EE0FFF1FEA5BFE4F8081918190930701AA
:100B60008093060180915B0290915C02880F892F2F
:100B7000881F990B919520912A02281791F0809354
:100B80002A02E0912A02F0E0EE0FFF1FE85FFD4F1E
:100B90008081918190931C0280931B0281E080935D
:100BA0001A028091310290913202880F892F881F9A
:100BB000990B919520910501281729F08093050143
:100BC00081E080931A0280911A02882339F02C98D0
:100BD00080911A02815080931A0201C02C9A609170
:100BE0004302709144027695679576956795709368
:100BF000300260932F0280913D0290913E029695C3
:100C000087959695879590932E0280932D02611576
:100C1000710521F0982F80E00E94B70670931F02A3
:100C200060931E0280915502909156029695879589
:100C30009695879580932C02809137029091380287
:100C4000969587959695879580932B020895209A7F
:100C500084B18C6184B9559A2C9A80918100886006
:100C60008093810080918100887F809381008091B2
:100C7000810082608093810080916F008260809308
:100C80006F0080917A00876080937A0080917A006B
:100C9000806880937A000E94850378941092050101
:100CA00010922A02E0912A02F0E0EE0FFF1FE85FA7
:100CB000FD4F8081918190931C0280931B020E94C2
:100CC000800480918100826080938100109267028D
:100CD000809167028F5F80936702809167028F71B6
:100CE000809367025D9801E312E0C0E08C2F80647E
:100CF00080937C0080917A00806480937A00809158
:100D00007A0086FDFCCFC8010E945804CF5F0A5FBD
:100D10001F4FC63059F75D9A05E512E0C3E08C2FEE
:100D2000806480937C0080917A00806480937A0054
:100D300080917A0086FDFCCFC8010E945804CF5FE5
:100D40000A5F1F4FC63059F780916702811102C0B8
:100D50000E949E050E94AD040E9481050E948004AD
:100D60008BE291E00197F1F700C00000B1CFAA1B20
:100D7000BB1B51E107C0AA1FBB1FA617B70710F086
:100D8000A61BB70B881F991F5A95A9F780959095B8
:100D9000BC01CD010895EE0FFF1F0590F491E02DE9
:100DA00009942F923F924F925F926F927F928F920F
:100DB0009F92AF92BF92CF92DF92EF92FF920F93EA
:100DC0001F93CF93DF93CDB7DEB7CA1BDB0B0FB6F4
:100DD000F894DEBF0FBECDBF09942A8839884888B1
:100DE0005F846E847D848C849B84AA84B984C88447
:100DF000DF80EE80FD800C811B81AA81B981CE0F3E
:100E0000D11D0FB6F894DEBF0FBECDBFED01089522
:100E100091110C940908803219F089508550C8F757
:100E20000895FC010590061621F00020D9F7C001B5
:100E300008953197CF010895CF93DF93EC012B8173
:100E400020FF33C026FF0AC02F7B2B838E819F811A
:100E500001969F838E838A8190E029C022FF0FC074
:100E6000E881F9818081082E000C990B009719F414
:100E700020622B831AC03196F983E8830EC0EA857D
:100E8000FB85099597FF09C02B81019611F080E23F
:100E900001C080E1822B8B8308C02E813F812F5FB0
:100EA0003F4F3F832E83992702C08FEF9FEFDF9143
:100EB000CF9108950F931F93CF93DF93FB0123816D
:100EC00021FD03C08FEF9FEF28C022FF16C046818F
:100ED0005781248135814217530744F4A081B181A1
:100EE0009D012F5F3F4F318320838C932681378173
:100EF0002F5F3F4F3783268310C0EB01092F182F38
:100F00000084F185E02D0995892BE1F68E819F8182
:100F100001969F838E83812F902FDF91CF911F9118
:100F20000F910895FB01238120FF12C026FD10C000
:100F30008F3F3FEF930761F082832F7D20642383EF
:100F400026813781215031093783268399270895D7
:100F50008FEF9FEF0895FA01AA27283051F1203131
:100F600081F1E8946F936E7F6E5F7F4F8F4F9F4F3D
:100F7000AF4FB1E03ED0B4E03CD0670F781F891F7F
:100F80009A1FA11D680F791F8A1F911DA11D6A0F4D
:100F9000711D811D911DA11D20D009F468943F9100
:100FA0002AE0269F11243019305D3193DEF6CF01FF
:100FB0000895462F4770405D4193B3E00FD0C9F7C5
:100FC000F6CF462F4F70405D4A3318F0495D31FD32
:100FD0004052419302D0A9F7EACFB4E0A695979585
:100FE000879577956795BA95C9F70097610571055B
:100FF00008959B01AC010A2E0694579547953795A5
:101000002795BA95C9F7620F731F841F951FA01DFE
:0C1010000895992788270895F894FFCFD1
:10101C00E1AC01FF01089001FFFFFFFFFFFFFFFFA5
:10102C00FFFFFFFF61FD28EFBCE110D51BC9D1BD4F
:10103C002AB31CA99E9FA896348E3886B07E9477CE
:10104C00DD70886A8D64E85E95598D54CE4F544B93
:10105C0019471C43573FC93B6E3843354632742FF2
:10106C00CA2C462AE727A9258C238D21AB1FE41D0A
:10107C00371CA11A2319B91764162315F313D412AC
:10108C00C611C610D50FF20E1B0E500D910CDC0BB9
:10109C00320B910AF9096A09E2086308EA07780732
:1010AC000D07A8064806EE0598054805FC04B4048F
:1010BC0071043104F503BC03860353032303F602C6
:1010CC00CC02A3027D025A0238021802FA01DD0199
:1010DC00C201A90191017B01650151013E012C0165
:1010EC001B010B01FC00EE00E100D400C800BD00A8
:1010FC00B200A8009F0096008D0085007E0077004E
:10110C0070006A0064005E00590054004F004A00F1
:10111C00460042003E003B0000C000FFEFEFDBB694
:0A112C007628D5AAAAAA0000000048
:00000001FF
