:100000000C9434000C9451000C9451000C94510049
:100010000C9451000C9451000C9451000C9451001C
:100020000C9451000C9451000C9451000C9453000A
:100030000C9451000C9451000C94AD000C945100A0
:100040000C9451000C9451000C9451000C945100EC
:100050000C9451000C9451000C9451000C945100DC
:100060000C9451000C94510011241FBECFEFD8E026
:10007000DEBFCDBF1AE0A0E0B1E0EEE6F8E002C0DE
:1000800005900D92A432B107D9F71AE0A4E2BAE0C4
:1000900001C01D92A334B107E1F70E9459030C94EB
:1000A00035040C9400001F920F920FB60F9211248A
:1000B0008F939F93EF93FF9310922B0A10922A0A2B
:1000C00080912D0A90912E0AE091C309F0E0EE0F85
:1000D000FF1FE355F64F0190F081E02DE80FF91F67
:1000E000019690932E0A80932D0AE49180912A0A1A
:1000F00090912B0A8E0F911D90932B0A80932A0AC0
:100100002C9880912A0A90912B0A0024880F991F1D
:10011000001C880F991F001C892F902D8F708EBD99
:100120000DB407FEFDCF8EB580932C0A80912A0A6C
:1001300090912B0A880F880F8EBD0DB407FEFDCF5E
:100140008EB580932C0A2C9AFF91EF919F918F91FD
:100150000F900FBE0F901F9018951F920F920FB621
:100160000F9211248F939F938091B3099091B409BA
:10017000892B49F08091B3099091B409019790932C
:10018000B4098093B3098091240A9091250A892BA0
:1001900049F08091240A9091250A01979093250AAD
:1001A0008093240A9F918F910F900FBE0F901F9004
:1001B000189541E050E00090280A02C0440F551FF6
:1001C0000A94E2F7E091290AF0E0EE0FFF1FE954EC
:1001D000F64F808191814827592720E030E008C000
:1001E0002A9A299A29982F5F3F4F2031310589F0AB
:1001F000CA01022E02C0969587950A94E2F780FD07
:10020000EFCF2A98299A29982F5F3F4F2031310547
:1002100079F780E180933F0A289A289808950E94F0
:10022000D9004091280A2091B9093091BA09042EC9
:1002300002C0369527950A94E2F72170220F80912B
:10024000BB099091BC09042E02C0969587950A942B
:10025000E2F78170880F880F282B8091B709909161
:10026000B809042E02C0969587950A94E2F781702A
:10027000282B8091BD099091BE09042E02C096954D
:1002800087950A94E2F78170880F880F880F282BD2
:100290008091BF099091C009042E02C09695879560
:1002A0000A94E2F781708295807F282B8091C109A2
:1002B0009091C209042E02C0969587950A94E2F7A0
:1002C00081708295880F807E282B2093390A1092A6
:1002D000320A1092310A8091310A9091320A909339
:1002E000300A80932F0A80912F0A9091300A9093C0
:1002F0002E0A80932D0A1092380A1092370A8091A4
:10030000370A9091380A9093360A8093350A809183
:10031000350A9091360A9093340A8093330A4F300D
:1003200028F4842F8F5F8093280A089580E08093BB
:10033000280A08952B982B9A70E040E050E020E0C6
:1003400030E0E1E0F0E012C0319B12C0CF01022E9C
:1003500002C0880F991F0A94E2F7482B592B409846
:10036000409A2F5F3F4F28313105B9F0203160F3BB
:10037000319BF5CF20513040CF01022E02C0880FB3
:10038000991F0A94E2F7205F3F4F782B4098409ADC
:100390002F5F3F4F2831310549F770933C0A409356
:1003A0003A0A50933B0A88E18093400A6091190A07
:1003B0006095672360933D0A8091290AE82FF0E059
:1003C000EE0FFF1FE954F64F8091170A9091180A1B
:1003D00080959095842395232081318182279327CE
:1003E00091838083962F917080911A0A8927809338
:1003F0001A0A262F30E061FF02C01182108222FF0C
:1004000031C01092BC091092BB091092BA09109227
:10041000B9091092B8091092B7091092C209109246
:10042000C1091092C0091092BF091092BE09109222
:10043000BD091092C5091092C4091092C309109207
:10044000C8091092C7091092C60988E78093C909A4
:100450008AEF90E09093B6098093B5091092290A2B
:1004600010923E0A6530C0F080913E0A833009F454
:1004700046C0843000F1853009F470C0853008F042
:100480004AC023FD09C024FDA7C020763070232B6D
:1004900019F085E080933E0A0E94D90080913A0AC3
:1004A00090913B0A9093180A8093170A80913C0A16
:1004B0008093190A0895813009F467C0823008F4E6
:1004C00055C023FD7CC024FD7EC025FF05C0609182
:1004D000C9096C3D08F4DDC026FFDECF6091C90973
:1004E0006D33D0F261506093C90980E395E770E005
:1004F0000E94E6037093B6096093B509CDCF23FD42
:100500005AC024FD55C020763070232B29F284E098
:1005100080933E0AC1CF863091F0873009F0BCCF7E
:1005200023FDB7CF24FD6EC025FF5AC08091270A56
:10053000813308F0AAC08F5F8093270AADCF23FDD7
:10054000E6CF24FD93C025FF54C08091160A813365
:1005500008F09DC08F5F8093160A9ECF23FD9CCF2D
:1005600024FFD1CF87E080933E0A96CF23FD30C091
:1005700024FD25C025FF72C08091290A853008F02E
:100580008DC08F5F8093290A87CF23FD11C024FD82
:1005900012C025FF55C08091290AE82FF0E0E954E8
:1005A000F64F8485833108F076C08F5F848774CFDF
:1005B00010923E0A71CF82E080933E0A6DCF81E0B7
:1005C00080933E0A69CF1092270A84E08093160A2E
:1005D00083E080933E0A60CF86E080933E0A5CCF42
:1005E00026FF5ACF8091270A882309F05BC081E358
:1005F000A3CF26FF51CF8091160A853008F450C052
:100600008150A9CF6091270A83E1689FB00111242E
:100610006050704087EB99E043E150E00E940D0488
:100620006091C90980E395E770E00E94E60370934A
:10063000B6096093B5091092290A1092280A2CCFA6
:1006400026FF2ACF8091290AE82FF0E0E954F64FDF
:100650008485882349F1815084871ECF26FF1CCFD3
:100660008091290A882319F181508CCF6091160A54
:1006700083E1689FB00111246050704087EB99E0DE
:1006800043E150E00E941D0407CF80E055CF84E095
:1006900062CF6F5F28CF80E08487FECE80E072CF8C
:1006A00081E359CF815048CF83E18487F5CE85E03F
:1006B00069CF1F93CF93DF9322E020936F008AE0EE
:1006C000809381008BE590E090938900809388006F
:1006D00020936E0024BD83E085BD8DE787BD8FEB41
:1006E00084B991E097B980E185B998B988E58CBD66
:1006F0009DBD86E29AE066EB73E041E050E00E9427
:100700000D048091260A8131E9F181E18093260A66
:1007100086E29AE066EB73E041E050E00E941D043F
:100720001092410A20E013E11FC030E0C901880F98
:10073000991FBC01660F771F660F771F660F771F23
:10074000680F791F620F731FCB018653964F60505D
:10075000704043E150E00E941D042091410A2F5F48
:100760002093410A223370F42430F8F2219FB00123
:1007700011246050704087EB99E043E150E00E9403
:100780001D04EBCF7894C6E9D0E08091240A9091C3
:10079000250A892B71F480911A0A882351F08091DF
:1007A000B5099091B6099093250A8093240A0E9476
:1007B0000F018091B3099091B409892B31F7D0933F
:1007C000B409C093B3090E949A01DFCF97FB092EA9
:1007D00007260AD077FD04D00CD006D000201AF4EA
:1007E000709561957F4F0895F6F7909581959F4F8D
:1007F0000895AA1BBB1B51E107C0AA1FBB1FA61768
:10080000B70710F0A61BB70B881F991F5A95A9F7B9
:1008100080959095BC01CD010895DC01CB01FC01D0
:10082000F999FECF06C0F2BDE1BDF89A319600B449
:100830000D9241505040B8F70895DC01CB0103C040
:100840002D910E94280441505040D0F70895262F42
:10085000F999FECF1FBA92BD81BD20BD0FB6F894A5
:0E086000FA9AF99A0FBE01960895F894FFCF08
:10086E000000000101010202020303040404050555
:10087E0005060606070708080909090A0A0A0A09E9
:10088E0007060504040405070A0D1115181B1E1F83
:10089E002122222323242425262728292A2B2C2CE7
:1008AE002D2D2C2C2C2B2B2A2A2A2929282727259B
:1008BE002423222120202020201F1F1E1E1C1B1936
:1008CE001815141211100F0D0D0C0B0A0A0A0A0B33
:1008DE000C0D0E101113151618191A1B1B1B1A18B6
:1008EE001614110F0C090603000000000000000092
:1008FE000000000000000000000000000104070AD4
:10090E000E12161A1E21242728292A2B2C2E30329D
:10091E0035373A3D404346494D5054595E646A72EC
:10092E007980888D929596979899999A9B9C9C9D83
:10093E009E9F9FA0A1A2A2A3A4A5A5A6A7A8A9A970
:10094E00A9A9A9A9A9A9A9A9A9A9A9A9A9A9A9A909
:10095E00A9A9A8A9A9A9A9A8A9A7A29D98938F8A70
:10096E0085807C77726D68635F5B57534F4B464251
:10097E003E3A36322E2A27231E1A16110D0905016C
:10098E000000000000000000000000000000000059
:10099E000000000000000000000000000000000049
:1009AE000000000000000000000000000000000039
:1009BE000000000000000000000000000000000029
:1009CE000000010001060B11181E252C32393F457F
:1009DE004C52585E646A70767C82878D92979CA189
:1009EE00A6A8A9A9A9A9A9A9A9A9A9A9A9A9A9A96D
:1009FE00A9A9A9A9A9A9A9A9A9A9A9A9A9A9A9A959
:100A0E00A9A9A9A9A9A9A9A9A9A9A9A9A9A9A9A948
:100A1E00A9A9A9A9A9A9A9A9A9A9A9A9A9A9A9A938
:100A2E00A9A9A9A8A6A4A2A09E9C9A9896949290D1
:100A3E008E8C8A888583817F7D7B797776757372BC
:100A4E00706F6D6A686664615F5C5A575553504E9D
:100A5E004B484643403E3C393734322F2C2926240E
:100A6E00211E1B181613100E0B08060402000000A0
:100A7E000000000000000000000000000000000068
:100A8E000000000000000000000000000000000058
:100A9E000000000000000000000102040506070926
:100AAE00090A0B0C0D0E0E0F1112131516181A1B28
:100ABE001D1E202223242425262728292A2B2C2DCF
:100ACE002E2F30313233353637383A3B3D3E3F40AC
:100ADE0041424243444546474848494A4B4C4D4E95
:100AEE004F4F5051525253535454545555565656C7
:100AFE00565757575656565555555555555656578A
:100B0E005757585859595A5B5C5D5E60626364650D
:100B1E006667696A6B6C6D6F7072737577797B7DC2
:100B2E007F8183848587888A8B8D8E90919394960E
:100B3E0097989A9B9C9E9FA0A1A3A4A5A6A7A7A8A1
:100B4E00A9A9A9A9A9A9A9A9A9A8A7A7A6A5A5A41C
:100B5E00A3A2A1A09F9E9D9B9A98979695939291E2
:100B6E008F8E8C8B89878584817F7D7B7978767457
:100B7E0072716F6D6B6967656361605E5C5B5A591C
:100B8E00585756555454535352525251504F4F4E2C
:100B9E004D4D4C4C4B4B4B4B4B4B4B4A4A4A494998
:100BAE0048474746464545454444444444444444E6
:100BBE004444444443434343424242414141403F03
:100BCE003F3E3E3D3C3C3B3A38373635343332318E
:100BDE002F2E2E2D2D2D2D2D2D2E2E2F2F30303024
:100BEE0030303131313233333434353636373738BD
:100BFE0038393A3B3B3C3D3E3F4041414142424207
:100C0E0042424141403F3F3E3D3D3C3B3B3A3A39FB
:100C1E003836353332302E2C2A292726242321200C
:100C2E001F1D1C1B19181716151514141313121249
:100C3E00121212111111111111111111121313148B
:100C4E0015161718191A1C1D1F21232527282A2DA2
:100C5E002F313336383B3D3F414446484A4C4E5186
:100C6E005355575A5C5F616365686A6C6E6F71733A
:100C7E007576787A7B7D7E8081838485868787886A
:100C8E00888989898A8A8A898989898888888786CC
:100C9E00868584838281807F7E7D7C7B7A79777660
:100CAE00757372706F6D6B6A6867656462615F5EA3
:100CBE005D5B5A585755545251504F4E4E4D4C4BFA
:100CCE004B4A4A4949494948484847474747474791
:100CDE0047474848484848494949494A4A4B4B4B77
:100CEE004C4C4C4C4C4C4C4D4D4D4D4D4D4E4E4E2A
:100CFE004F4F4F4F4F4F4E4E4E4E4E4D4D4D4D4D05
:100D0E004E4E4E4E4F4F50505151515252535354CE
:100D1E005455565758595A5C5D5E5F606162636404
:100D2E00656668696B6C6E7071737577787A7C7DA9
:100D3E007F8183848687898A8C8E8F9192949597F2
:100D4E00999A9C9E9FA1A2A3A5A6A7A8A8A9A9A966
:100D5E00A9A9A9A9A9A9A9A9A9A9A8A8A8A7A7A6FF
:100D6E00A5A4A3A2A19F9E9C9B9997959392908ECA
:100D7E008C8A89878583817F7D7B79777574727084
:100D8E006E6C6A6967656362605F5D5C5A58575541
:100D9E00545251504F4D4C4B4A4948474746454592
:100DAE00444443434242414140403F3F3F3F3E3E29
:100DBE003E3E3E3E3D3D3D3D3C3C3C3B3B3B3A3A60
:100DCE003A393939383838373737363635353434A5
:100DDE0034333333333232323231313130302F2FEC
:100DEE002E2D2D2C2C2B2A2A292828272626252461
:100DFE002423222121201F1F1E1D1D1C1C1B1B1AFC
:100E0E001A1919181817171616161515151515146B
:100E1E0014141313131312121212121211111111A0
:100E2E001111121212121212121212121313131491
:100E3E00141415151617171818191A1B1C1C1D1E1D
:100E4E001F20212223232425262728292A2B2C2D37
:100E5E002E2F313233353637393A3C3D3E40414202
:100E6E0044454648494B4C4D4F5051525355565799
:100E7E0058595A5B5C5D5E5F606162626364656572
:100E8E006667686869696A6B6B6C6C6D6D6E6F6FA7
:100E9E007070717171727272727273737373737325
:100EAE0073737474747474747474747475757575F2
:100EBE0075767676767676777777777778787878B8
:100ECE0078787878777777777777777777777777A0
:100EDE0077777777777776767675757574747474A9
:100EEE007373737372727271717170706F6F6F6EE4
:100EFE006E6E6D6D6D6C6C6C6B6B6A6A6969686831
:100F0E0067676666656564646362626161605F5FA0
:100F1E005E5D5D5C5C5B5A5A59585857565655542F
:100F2E005453535252515150504F4F4E4E4D4D4DB2
:100F3E004C4C4C4B4B4B4A4A4A4A4A4949494949FF
:100F4E0049494949494949494949494949494A4A01
:100F5E004A4A4A4A4B4B4B4B4B4B4C4C4C4C4C4CD1
:100F6E004D4D4D4D4D4D4D4E4E4E4E4E4E4E4E4E9A
:100F7E004E4E4E4F4F4F4F4F4F4F4F4F4F4E4E4E79
:100F8E004E4E4E4E4E4E4E4F4F4F4F4F4F4F4F4F6A
:100F9E004F4F4F4F4F505050505050505151515144
:100FAE005152525252525353535353545454545405
:100FBE0055555555555556565656565657575757C5
:100FCE005757575757585858585858585858585898
:100FDE005858585858585858585858585858585883
:100FEE005858585858585858585857575757575779
:100FFE00575757575757565656565656565656567D
:10100E00565656565656555555555555555555557C
:10101E005555555555555555555555555555555572
:10102E005555555555555555555555555555555463
:10103E005453535352525151515050504F4F4E4E94
:10104E004E4D4D4C4C4C4B4B4B4A4A4949494747E8
:10105E004746464645454444444343424242414145
:10106E004140403F3F3F3E3E3E3D3D3C3C3C3B3B96
:10107E003B3A3A39393938383837373636363535E6
:10108E0034343433333332323131313030302F2F38
:10109E002E2E2E2D2D2D2C2C2B2B2B2A2A2A292988
:1010AE0028282827272626262525252424232323DA
:1010BE0022222221212020201F1F1F1E1E1D1D1D2A
:1010CE001D1C1C1B1B1B1A1A1A1919181818171776
:1010DE0016161615151514141313131212111111C9
:1010EE001010100F0F0E0E0E0D0D0D0C0C0B0B0B1A
:1010FE000A0A09090908080807070606060505046D
:10110E000404030303020201010100000000011B9D
:10111E000AAD089600FA0000000000000000000072
:10112E000000000000000000007881051010151569
:10113E004040000000000E110C0A0000780521103E
:10114E0010111100000000000001100C00000078CA
:10115E0011119010DDDD4444000000000E0F0A0C4A
:10116E000000821111444401010000000000000D36
:10117E000A060000007804FFFFFF0142617373301E
:04118E00310000002C
:00000001FF
