:100000009AC0B4C0B3C0B2C0B1C0B0C034C2AEC0F8
:10001000ADC0ACC0ABC0ADC1A9C0A8C0A7C0A6C090
:10002000A5C0A4C0A3C0D5C3FBC315C437C44DC469
:100030007CC39DC3C3C3FFFFFFFFFFFFFFFFFFFFA5
:10004000FFFF61FD28EFBCE110D51BC9D1BD2AB36C
:100050001CA99E9FA896348E3886B07E9477DD705A
:10006000886A8D64E85E95598D54CE4F544B19477C
:100070001C43573FC93B6E3843354632742FCA2C58
:10008000462AE727A9258C238D21AB1FE41D371CA9
:10009000A11A2319B91764162315F313D412C61124
:1000A000C610D50FF20E1B0E500D910CDC0B320B4F
:1000B000910AF9096A09E2086308EA0778070D0757
:1000C000A8064806EE0598054805FC04B40471042A
:1000D0003104F503BC03860353032303F602CC0269
:1000E000A3027D025A0238021802FA01DD01C201A0
:1000F000A90191017B01650151013E012C011B0108
:100100000B01FC00EE00E100D400C800BD00B2000D
:10011000A8009F0096008D0085007E00770070008B
:100120006A0064005E00590054004F004A00460017
:1001300042003E003B0011241FBECFE5D4E0DEBFED
:10014000CDBF10E0A0E6B0E0E2E6FEE002C0059020
:100150000D92AC38B107D9F720E0ACE8B0E001C0AF
:100160001D92A13DB207E1F762D579C649CF209132
:10017000690022FB882780F923FB992790F99827AB
:10018000822F880F892B8F7080936900089580914A
:100190006900982F90959170880F892B8F708093AC
:1001A00069000895209168003091690024FB882738
:1001B00080F933FB992790F99827822F880F892B94
:1001C00085FB222720F9932F990F922B9F709093F4
:1001D00069008F718093680008952091680022FB68
:1001E000882780F924FB992790F99827822F880F78
:1001F000892B85FB222720F990916900990F922B7A
:100200009F70909369008F7180936800089520918A
:10021000680022FB882780F924FB992790F998270A
:10022000822F880F892B982F9F719093680084FFED
:100230000FC02091690022FB882780F923FB9927B2
:1002400090F99827822F880F892B8F7080936900EF
:1002500008952091680022FB882780F924FB9927C4
:1002600090F99827822F880F892B982F9F71909350
:1002700068008F70883009F0089580916900982F88
:1002800090959170880F892B8F70809369000895E5
:100290002091680022FB882780F924FB992790F998
:1002A0009827822F880F892B982F9F719093680031
:1002B00084FF0AC080916900982F90959170880FF3
:1002C000892B8F708093690008952091680022FB2C
:1002D000882780F924FB992790F99827822F880F87
:1002E000892B982F9F719093680084FF0EC02091F6
:1002F0006900822F90E080959095880F991F22FFCA
:1003000005C030E0832B809369000895277031E0A9
:10031000C9F7F7CF8770E82FF0E0EE0FFF1FE45822
:10032000FF4F0190F081E02D09958091690083FBDA
:10033000882780F908952091600030916100C901FB
:10034000817099279195819591098827947B36959D
:1003500027958227932790936100809360000895EA
:1003600010BC8DE489B986E880BD8AB188698AB9F4
:1003700008951F920F920FB60F9211242F933F935F
:100380008F939F93EF93FF932CB1822F90E09595DD
:1003900087959595879595958795959587958830B7
:1003A000910574F021E020939B008830910539F18C
:1003B000099701F582E080939A00809399000FC01D
:1003C0008091990018160CF59091980090939700E1
:1003D000209398008150809399008823C1F0FF9169
:1003E000EF919F918F913F912F910F900FBE0F90A2
:1003F0001F90189510929A0010929900F0CF2093B8
:100400009A0082E080939900EACF909197008091C2
:100410009A00813031F1823011F780919800882361
:1004200001F180916400882339F08091CB0088230A
:1004300019F081E08093CC0081E080936400E92F83
:10044000F0E0EE0FFF1FEA5CFF4F259134913093EF
:100450006700209366009093630082E08093990088
:10046000BECF809163009813F8CF109264008FEF95
:1004700080936300F2CF1F920F920FB60F92112458
:100480002F933F934F935F936F937F938F939F939C
:10049000AF93BF93EF93FF93809165008730D8F4BB
:1004A00020918D0030918E0080918D0090918E0072
:1004B0009695879590938E0080938D0020FF42C083
:1004C00080918D0090918E00906890938E00809323
:1004D0008D0091E01AC0809165008830C8F52091A8
:1004E000600030916100C9018170992791958195D3
:1004F00091098827947B3695279582279327909397
:10050000610080936000982F91708091620020912B
:100510006400822389239091CD0090958923B1F0C6
:10052000C09AFF91EF91BF91AF919F918F917F9171
:100530006F915F914F913F912F910F900FBE0F9050
:100540001F9018958091620080916400C098E9CF57
:10055000E0916500E770F0E0EE0FFF1FE458FF4FF9
:100560000190F081E02D09958091690083FB992726
:1005700090F9CBCFFC0184B125B130E0322F222796
:10058000280F311D4281538164817581420F531FB1
:10059000611D711D42835383648375838091C700FD
:1005A00081110DC084E076956795579547958A959A
:1005B000D1F75183408312821382148215820895E9
:1005C00080919B00811105C08091CE00882309F4A1
:1005D00064C08091920090919300880F991F880FBA
:1005E000991F2091660030916700281B390B80917C
:1005F000C9009091CA00281B390BE0919500F09139
:1006000096002E173F07B9F180919B008823A1F136
:100610008091CC00882381F14091CB008091C8006B
:1006200090E0959587958F719927642F70E004D499
:10063000892B39F5E217F30708F040C0319646954B
:1006400046954695CF01840F911DF90182179307B6
:1006500008F43FC0F0939600E09395008CB59DB5EB
:10066000E817F90730F41DBC1CBCE0919500F0912F
:100670009600FBBDEABD0895309396002093950047
:10068000F9018CB59DB5E817F90798F71DBC1CBC9E
:10069000E0919500F0919600ECCF209166003091AA
:1006A00067002C593F4F8091920090919300281B36
:1006B000390B220F331F220F331F9FCF31974695DF
:1006C00046954695CF01840F911DF90128173907EA
:1006D00008F6FC01BFCFE0919C008E2F90E088309F
:1006E0009105E8F08091940090E02091A100309174
:1006F000A2003695279582179307B8F1C398809189
:1007000094008F5F8093940090E02091A10030913D
:10071000A2008217930710F0109294000895FC0134
:10072000ED5EFF4F80919400099490E02091A1002C
:100730003091A200369527958217930708F0E1C003
:100740004091900050919100849F9001859F300DC1
:10075000949F300D1124C901880F892F881F990B90
:1007600091959093930080939200C39AC8CF90E0A4
:100770002091A1003091A20036952795821793070A
:1007800008F0BFC04091900050919100849F90016B
:10079000859F300D949F300D1124220F232F221F8F
:1007A000330B319580919F009091A000821B930B99
:1007B0009093930080939200C39AA1CF882309F469
:1007C000ABC090E02091A1003091A2003695279512
:1007D00092CF90E04091900050919100849F9001C1
:1007E000859F300D949F300D1124232F3327309394
:1007F0009300209392004091A1005091A200569541
:1008000047958417950708F4B0CF80919F00909189
:10081000A000821B930B90939300809392006ECF65
:1008200090E04091900050919100849F9001859FAD
:10083000300D949F300D112430939200109293004C
:100840002091A1003091A200369527958217930739
:1008500008F054CF8ACF90E0209190003091910021
:10086000829FA001839F500D929F500D1124452F10
:10087000552720919F003091A000241B350B309309
:100880009300209392002091A1003091A200369510
:1008900027958217930708F031CF67CF90E020911A
:1008A000A1003091A200369527958217930770F129
:1008B00040919F005091A00050939300409392006C
:1008C0008217930708F01ACF50CF90E02091A10033
:1008D0003091A200A90156954795569547958417E2
:1008E0009507B8F440919F005091A0005093930059
:1008F00040939200369527958217930708F0FECE15
:1009000034CF1092930010929200F8CE40E050E065
:10091000D3CF40E050E0EACF2091600030916100F9
:10092000C901817099279195819591098827947BB8
:1009300036952795822793279093610080936000D6
:1009400060919F007091A00063D290939300809378
:1009500092002091A1003091A2003695279580E069
:1009600090E0C9CE80918F008F5F80938F0090912F
:100970009E00891718F010928F0080E091E020917E
:100980009D00281708F490E0909362008091620027
:10099000811102C0C2980895C29A089580919B0067
:1009A000811160C08091BB009091BC009093670062
:1009B000809366002091CE00211161C080918C004F
:1009C000882309F44DC0C49880918C008150809395
:1009D0008C008091C1009091C20096958795969564
:1009E000879596958795805491099093CA00809336
:1009F000C9006091A9007091AA00769567957695D7
:100A000067957093A2006093A1008091A3009091DC
:100A1000A40096958795969587959093A0008093CE
:100A20009F006115710519F0982F80E0F1D1709346
:100A30009100609390008091AF009091B0009695E6
:100A400087959695879580939E008091B5009091AB
:100A5000B600969587959695879580939D00089505
:100A6000C49AB7CF8091BB009091BC0092958295BB
:100A70008F7089279F7089278093CB009FCF002498
:100A8000880F991F001C880F991F001C892F902D1B
:100A9000EE27FF27E81BF90BEE0FFF1FE651FF4F74
:100AA00085919491909367008093660087CFDF9241
:100AB000EF92FF920F931F93CF93DF9386E0809383
:100AC0009C001092650094E6E92EF12CDD24D3946D
:100AD000E0916500F0E0EE0FFF1FE659FF4F8081C7
:100AE000918190938E0080938D008091650080FFAE
:100AF00007C080919C00882319F0815080939C004E
:100B0000F092AA00E092A90010E080E090E09093BB
:100B1000A4008093A300812F8695837028EC829F88
:100B2000C00111249093B0008093AF00012F017099
:100B300010FD4BC084E690E09093B6008093B50022
:100B40001092CD001092CC0029DFE12FE37088E1F4
:100B5000E89FF0011124E255FF4F85919491909305
:100B6000670080936600C0E0D0E0011113C080E907
:100B700091E0C817D90798F4AEDDF4DE21DD8FE6E9
:100B800097E10197F1F700C000001B30B0F4219607
:100B9000002369F388EC90E0C817D90768F30111C6
:100BA00017C01F5F103111F1F092AA00E092A90066
:100BB0001D30D0F580E090E0AACF8FE697E1019755
:100BC000F1F700C000002196E3CF80E293E0B4CFBC
:100BD000D092CD009FEF2DEE82E0915020408040DA
:100BE000E1F700C000001F5F1031F1F68091650051
:100BF0008F5F809365008091650080916500811111
:100C000067CF9FEF28EF85E1915020408040E1F7CA
:100C100000C000001092CD00DF91CF911F910F9185
:100C2000FF90EF90DF90089580E293E070CFB89A44
:100C300087B38C6187BB959A979A969A81E0809347
:100C4000CF008093D000C49AA498AC9A90B395FB3F
:100C5000992790F989278093CE008EB588608EBD44
:100C600089B7806189BF86B1876086B9379A10BC21
:100C70008DE489B986E880BD8AB188698AB978949B
:100C800083E080939C0085E080936500E09165009F
:100C9000F0E0EE0FFF1FE659FF4F808191819093A6
:100CA0008E0080938D008CDC8EB582608EBD10929C
:100CB000C7008091C7008F5F8093C7008091C700F5
:100CC0008F708093C70080B385FB882780F991E0FF
:100CD000879B90E081112CC0209165002F5F2093AD
:100CE000650020916500213109F48FC0E091650015
:100CF000F0E0EE0FFF1FE659FF4F20813181309366
:100D00008E0020938D00C398C29A0FEF12E527E062
:100D1000015010402040E1F700C00000C2983FEFB2
:100D200042E507E0315040400040E1F700C00000DC
:100D3000992309F44CC08093D0009093CF00E3EA4C
:100D4000F0E020E0822F806487B9369A3699FECF92
:100D500034B185B190E0982F8827830F911D42818F
:100D60005381648175817A018B01E80EF91E011DA2
:100D7000111DD801C701E282F382048315833091EB
:100D8000C70031110DC034E0B695A79597958795AA
:100D90003A95D1F79183808312821382148215824F
:100DA0002F5F3696263071F68091C700882359F15F
:100DB00092DCD8DD05DC8BE291E00197F1F700C011
:100DC00000008091C8008F5F8093C80072CF20918F
:100DD0009C002F5F277020939C00C398C39A1FEF3D
:100DE00022E537E0115020403040E1F700C000001C
:100DF000C3984FEF02E517E0415000401040E1F783
:100E000000C0000098CFCADDD3CF109265006ECF2E
:100E1000AA1BBB1B51E107C0AA1FBB1FA617B70720
:100E200010F0A61BB70B881F991F5A95A9F780953C
:100E30009095BC01CD01089597FB072E16F4009400
:100E400006D077FD08D0E4DF07FC05D03EF490958E
:100E500081959F4F0895709561957F4F0895F894FF
:020E6000FFCFC2
:100E6200E1AC01FF010AC800010130C900FFEFEF48
:100E7200DBB67628D5AAAAAA00000000B7000701AF
:0C0E8200C70029014801D200ED00650105
:00000001FF
