:100000000C94BC000C94D9000C94D9000C94D90029
:100010000C94D9000C94D9000C94D9000C94D900FC
:100020000C94D9000C94D9000C94D9000C94740150
:100030000C94D9000C94D9000C94D9000C94D900DC
:100040000C94D9000C94D9000C9401010C94D900A3
:100050000C94D9000C94D9000C94D9000C94D900BC
:100060000C94D9000C94D900B102D802F302160303
:100070002D035D027F02A602FFFFFFFFFFFFFFFFD0
:10008000FFFFFFFF61FD28EFBCE110D51BC9D1BD0B
:100090002AB31CA99E9FA896348E3886B07E94778A
:1000A000DD70886A8D64E85E95598D54CE4F544B4F
:1000B00019471C43573FC93B6E3843354632742FAE
:1000C000CA2C462AE727A9258C238D21AB1FE41DC6
:1000D000371CA11A2319B91764162315F313D41268
:1000E000C611C610D50FF20E1B0E500D910CDC0B75
:1000F000320B910AF9096A09E2086308EA077807EE
:100100000D07A8064806EE0598054805FC04B4044A
:1001100071043104F503BC03860353032303F60281
:10012000CC02A3027D025A0238021802FA01DD0154
:10013000C201A90191017B01650151013E012C0120
:100140001B010B01FC00EE00E100D400C800BD0063
:10015000B200A8009F0096008D0085007E00770009
:1001600070006A0064005E00590054004F004A00AD
:10017000460042003E003B0011241FBECFEFD8E0F6
:10018000DEBFCDBF11E0A0E0B1E0E6EFFAE002C0D3
:1001900005900D92AA31B107D9F721E0AAE1B1E0AB
:1001A00001C01D92A836B207E1F70E9426040C9404
:1001B00079050C9400002091000130910101C901E2
:1001C000817099279195819591098827947B36951F
:1001D000279582279327909301018093000108952A
:1001E0001092C5008FE18093C400E0ECF0E08081C4
:1001F0008D7F808380E98093C10086E08093C20078
:1002000008951F920F920FB60F9211242F938F9380
:100210009F93EF93FF939091C60097FD32C080911A
:1002200027011816ACF42091260120932501909304
:100230002601815080932701882361F0FF91EF917F
:100240009F918F912F910F900FBE0F901F90189537
:100250002091250180912801813031F0823071F7A1
:100260008091260181112EC080910301281305C0C1
:10027000109204018FEF8093030182E080932701A5
:10028000DDCF81E0809329019C3F79F050F49038D4
:1002900099F0903961F482E08093280180932701DE
:1002A000CDCF9E3F59F29F3F11F41092040110925E
:1002B000280110922701C2CF8093280182E0809309
:1002C0002701BCCF81E080930401E22FF0E0EE0F24
:1002D000FF1FE858FF4F85919491909307018093F9
:1002E000060120930301C9CF1F920F920FB60F9200
:1002F00011242F933F938F939F9380912A018730EE
:1003000089F120911B0130911C0180911B0190917A
:100310001C019695879590931C0180931B0120FFEB
:1003200013C080911B0190911C01906890931C0157
:1003300080931B0191E080910201209104018223AE
:10034000892331F0289A05C080910201809104012F
:1003500028989F918F913F912F910F900FBE0F90F2
:100360001F9018952091000130910101C901817001
:1003700099279195819591098827947B36952795A2
:10038000822793279093010180930001982F917009
:10039000D2CFFC01809178002091790030E0322F9B
:1003A0002227280F311D4281538164817581420FBC
:1003B000531F611D711D4283538364837583809134
:1003C000670181110DC085E0769567955795479532
:1003D0008A95D1F751834083128213821482158249
:1003E000089580912901882369F12091200130919D
:1003F0002101220F331F220F331F8091060190919C
:100400000701821B930B2091230130912401821755
:100410009307B9F0909324018093230120918400E5
:10042000309185008217930740F410928500109256
:1004300084008091230190912401909389008093FE
:10044000880008958091060190910701C29620913D
:10045000200130912101821B930B880F991F880F77
:10046000991FD1CFE09105018E2F90E08830910542
:10047000E8F08091220190E020912F01309130012D
:100480003695279582179307C0F12A98809122010B
:100490008F5F8093220190E020912F0130913001F5
:1004A0008217930710F0109222010895FC01EC5C72
:1004B000FF4F809122010C94730590E020912F0151
:1004C00030913001369527958217930708F0E1C0E7
:1004D00040911E0150911F01849F9001859F300D16
:1004E000949F300D1124C901880F892F881F990B03
:1004F000919590932101809320012A9AC7CF90E093
:1005000020912F013091300136952795821793075E
:1005100008F0BFC040911E0150911F01849F9001BF
:10052000859F300D949F300D1124220F232F221F01
:10053000330B319580912D0190912E01821B930BED
:1005400090932101809320012A9AA0CF882309F457
:10055000ABC090E020912F01309130013695279566
:1005600091CF90E040911E0150911F01849F900116
:10057000859F300D949F300D1124232F3327309306
:1005800021012093200140912F0150913001569577
:1005900047958417950708F4B0CF80912D0190916D
:1005A0002E01821B930B90932101809320016DCF2C
:1005B00090E040911E0150911F01849F9001859F02
:1005C000300D949F300D11243093200110922101A1
:1005D00020912F013091300136952795821793078E
:1005E00008F053CF8ACF90E020911E0130911F0177
:1005F000829FA001839F500D929F500D1124452F83
:10060000552720912D0130912E01241B350B30935D
:1006100021012093200120912F0130913001369546
:1006200027958217930708F030CF67CF90E020918D
:100630002F0130913001369527958217930770F17D
:1006400040912D0150912E015093210140932001A2
:100650008217930708F019CF50CF90E020912F0117
:1006600030913001A90156954795569547958417C5
:100670009507B8F440912D0150912E01509321011E
:1006800040932001369527958217930708F0FDCEF9
:1006900034CF1092210110922001F7CE40E050E0BB
:1006A000D3CF40E050E0EACF20910001309101012A
:1006B000C901817099279195819591098827947B2B
:1006C0003695279582279327909301018093000107
:1006D00060912D0170912E010E945F059093210180
:1006E0008093200120912F0130913001369527957C
:1006F00080E090E0C7CE80911D018F5F80931D0147
:1007000090912C01891718F010921D0180E091E062
:1007100020912B01281708F490E09093020180911A
:100720000201811102C02B9808952B9A089580919F
:100730002901811108C08091490190914A0190934B
:1007400007018093060180915B0190915C01880F05
:10075000892F881F990B919520912A01281709F458
:1007600062C080932A01E0912A01F0E0EE0FFF1FA2
:10077000E85FFE4F8081918190931C0180931B0163
:1007800081E080931A018091310190913201880FAC
:10079000892F881F990B919590910501891729F050
:1007A0008093050181E080931A012C9880911A01B1
:1007B000815080931A0160914301709144017695B4
:1007C0006795769567957093300160932F018091BE
:1007D0003D0190913E0196958795969587959093CA
:1007E0002E0180932D016115710521F0982F80E075
:1007F0000E945F0570931F0160931E018091550157
:1008000090915601969587959695879580932C01A2
:1008100080913701909138019695879596958795A7
:1008200080932B0108958091310190913201880FBE
:10083000892F881F990B9195909105018913B0CF4D
:1008400080911A018111B1CF2C9AB5CF209A84B131
:100850008C6184B9559A2C9A80918100886080932C
:10086000810080916F00826080936F0080917A0098
:10087000876080937A0080917A00806880937A0004
:100880001092C5008FE18093C4008091C0008D7FDD
:100890008093C00080E98093C10086E08093C2000D
:1008A00078941092050110922A01E0912A01F0E05B
:1008B000EE0FFF1FE85FFE4F8081918190931C0136
:1008C00080931B010E94F1018091810082608093DE
:1008D000810010926701809167018F5F80936701AB
:1008E000809167018F71809367015D98E1E3F1E08A
:1008F00020E0822F806480937C0080917A00806465
:1009000080937A0080917A0086FDFCCF3091780048
:100910008091790090E0982F8827830F911D428164
:100920005381648175817A018B01E80EF91E011DE6
:10093000111DD801C701E282F3820483158330912F
:10094000670131110DC075E0B695A795979587950C
:100950007A95D1F791838083128213821482158253
:100960002F5F3696263029F65D9AE5E5F1E023E023
:10097000822F806480937C0080917A0080648093D1
:100980007A0080917A0086FDFCCF309178008091CA
:10099000790090E0982F8827830F911D4281538121
:1009A000648175817A018B01E80EF91E011D111D0C
:1009B000D801C701E282F382048315833091670175
:1009C00031110DC055E0B695A795979587955A9525
:1009D000D1F79183808312821382148215822F5F54
:1009E0003696263029F680916701882309F464C081
:1009F0000E94320280911D018F5F80931D019091B2
:100A00002C01891718F010921D0180E091E02091CF
:100A10002B01281708F490E09093020180910201C5
:100A2000811148C02B9880912901882399F1209148
:100A3000200130912101220F331F220F331F80919B
:100A4000060190910701821B930B209123013091A5
:100A5000240128173907B9F09093240180932301CA
:100A600020918400309185008217930740F4109202
:100A7000850010928400809123019091240190932D
:100A80008900809388008FE891E00197F1F700C01A
:100A9000000021CF8091060190910701C29620911C
:100AA000200130912101821B930B880F991F880F21
:100AB000991FCBCF2B9AB7CF0E94970399CFAA1B30
:100AC000BB1B51E107C0AA1FBB1FA617B70710F039
:100AD000A61BB70B881F991F5A95A9F7809590956B
:100AE000BC01CD010895EE0FFF1F0590F491E02D9C
:060AF0000994F894FFCF09
:100AF600E1AC01FF0108900100C000FFEFEFDBB69B
:0A0B06007628D5AAAAAA0000000074
:00000001FF
