:100000001AC034C033C032C031C030C0DFC22EC0CD
:100010002DC02CC02BC02AC029C028C027C026C094
:1000200025C024C023C0F7C021C139C159C16FC147
:10003000CCC080C1A2C011241FBECFE5D4E0DEBF7A
:10004000CDBF10E0A0E6B0E0E4EAF6E002C0059023
:100050000D92AE37B107D9F720E0AEE7B0E001C0AE
:100060001D92A73CB207E1F737D21AC3C9CF8091DE
:100070006700909168009C01217030703095219547
:100080003F4F2070347B96958795282739273093EA
:10009000680020936700C90108950895FC0180E479
:1000A00087B9369A3699FECF34B125B1922F80E0C8
:1000B000830F911D9C0140E050E082819381A481D7
:1000C000B581280F391F4A1F5B1F22833383448366
:1000D000558380917E00882369F465E056954795A5
:1000E000379527956A95D1F7318320831282138241
:1000F0001482158208958091B600882319F18091A9
:10010000BE009091BF00880F991F880F991F209102
:10011000600030916100281B390B8091BB009091E9
:10012000BC002817390769F03093BC002093BB004E
:100130008CB59DB52817390710F41DBC1CBC3BBD00
:100140002ABD089520916000309161002E5C3F4FE0
:100150008091BE009091BF00281B390B220F331FE6
:10016000220F331FDACF80916200E82FF0E0E830F1
:10017000F10588F4ED5EFF4F09946091BD006623A0
:1001800061F475DF6091B1007091B20075D2909307
:10019000BF008093BE006091BD004091AF005091C0
:1001A000B000262F30E0CA019695879528173907A9
:1001B00080F1C298862F8F5F8093BD0090E08417F6
:1001C000950710F01092BD0008956091BD00262F94
:1001D00030E04091AF005091B000CA0196958795EC
:1001E0002817390708F0D0C08091C0009091C10055
:1001F000FC012E9FC0012F9F900D3E9F900D11245A
:10020000880F892F881F990B91959093BF00809339
:10021000BE00C29ACFCF6091BD00262F30E0809102
:10022000C0009091C100AC01249FC001259F900D9A
:10023000349F900D1124E92FFF27F093BF00E09326
:10024000BE004091AF005091B000CA0196958795CD
:1002500028173907F0F28091B1009091B2008E1BFF
:100260009F0B9093BF008093BE00A3CF6091BD0011
:10027000862F90E02091C0003091C100FC01E29FE8
:10028000C001E39F900DF29F900D11249093BE004A
:100290001092BF004091AF005091B00082CF6091AA
:1002A000BD00262F30E08091C0009091C100A901CF
:1002B000489F9001499F300D589F300D1124232FE6
:1002C00033278091B1009091B200821B930B9093E1
:1002D000BF008093BE004091AF005091B00061CF4D
:1002E0006091BD00262F30E04091AF005091B000EA
:1002F000CA019695879528173907C8F08091B100F3
:100300009091B2009093BF008093BE004ACF60915D
:10031000BD00262F30E04091AF005091B000CA01DF
:1003200096958795969587952817390738F380E035
:1003300090E0E8CF6091BD00E62FF0E04091AF0083
:100340005091B000CA0196958795E817F907E0F437
:100350008091C0009091C100E89F9001E99F300D0D
:10036000F89F300D1124220F232F221F330B3195BC
:100370008091B1009091B200821B930B9093BF00CB
:100380008093BE00C29A16CF1092BF001092BE009A
:1003900010CF9091C2009F5F9093C2008091B300F4
:1003A000981718F01092C20090E020E08091B400FD
:1003B000891708F021E0209365008091650088236B
:1003C00011F4C3980895C39A08958091B6008823C4
:1003D00041F48091970090919800909361008093F0
:1003E00060002091A9003091AA00220F232F221F24
:1003F000330B31958091B500821791F02093B500B1
:10040000E091B500F0E0EE0FFF1FE759FF4F80814C
:1004100091819093C4008093C30081E08093C500D4
:100420002091A3003091A400220F232F221F330B11
:10043000319580916200821729F02093620081E05B
:100440008093C500609191007091920076956795B8
:10045000769567957093B0006093AF0020918B0004
:1004600030918C0036952795369527953093B200BC
:100470002093B10061157105E9F080E0922FFCD066
:10048000CB019093C1008093C00080917F00909138
:10049000800096958795969587958093B300809177
:1004A000850090918600969587959695879580937F
:1004B000B400089580E090E0E4CF90B396959695CF
:1004C00080916600891721F089279093660008952E
:1004D00080E0909366000895CF92DF92EF92FF92B2
:1004E0000F931F93CF93DF93B89A81B3837081BB2F
:1004F00082B38C6F82BB87B38C6087BB8EB58860FC
:100500008EBD89B7806189BF86B1876086B9379A09
:100510007894109262001092B500E091B500F0E07E
:10052000EE0FFF1FE759FF4F808191819093C40028
:100530008093C300E0DD8EB582608EBD10927E0098
:100540009CE2C92E91E0D92E80917E008F5F80932E
:100550007E0080917E008F7180937E0090B396958F
:10056000969580916600981761F18927E82EFF24FF
:10057000909366000FE710E0C0E0D0E006C021963F
:100580000A5F1F4FC830D10589F0C7010C2E02C089
:10059000959587950A94E2F780FFF1CFC8017EDD3B
:1005A00021960A5F1F4FC830D10579F780917E00F0
:1005B000882351F0D8DDEDDE9EDDC6010197F1F70D
:1005C000C3CFEE24FF24D4CF00DFF4CF1F920F92CD
:1005D0000FB60F9211242F933F938F939F93809187
:1005E000B500873091F12091C3003091C400809113
:1005F000C3009091C400969587959093C400809312
:10060000C300322F317020FF12C08091C30090913F
:10061000C40090689093C4008093C30090916500DB
:10062000809163008923832331F0C09A05C08091B3
:10063000650080916300C0989F918F913F912F91A9
:100640000F900FBE0F901F9018952091670030916A
:100650006800C90181709070909581959F4F80705E
:10066000947B3695279582279327909368008093F3
:100670006700382F3170D2CFAA1BBB1B51E107C0D6
:10068000AA1FBB1FA617B70710F0A61BB70B881F22
:10069000991F5A95A9F780959095BC01CD010895B1
:0406A000F894FFCFFC
:1006A400B8010801FF013FE1AC00C000FFEFEFDB40
:0E06B400B67628D5AAAAAA0000000000000011
:00000001FF
