:100000000C94BC000C94D9000C94D9000C94D90029
:100010000C94D9000C94D9000C94D9000C94D900FC
:100020000C94D9000C94D9000C94D9000C94730151
:100030000C94D9000C94D9000C94D9000C94D900DC
:100040000C94D9000C94D9000C9401010C94D900A3
:100050000C94D9000C94D9000C94D9000C94D900BC
:100060000C94D9000C94D900330250025E026A024B
:1000700075028902AA02CB02FFFFFFFFFFFFFFFF0D
:10008000FFFFFFFF61FD28EFBCE110D51BC9D1BD0B
:100090002AB31CA99E9FA896348E3886B07E94778A
:1000A000DD70886A8D64E85E95598D54CE4F544B4F
:1000B00019471C43573FC93B6E3843354632742FAE
:1000C000CA2C462AE727A9258C238D21AB1FE41DC6
:1000D000371CA11A2319B91764162315F313D41268
:1000E000C611C610D50FF20E1B0E500D910CDC0B75
:1000F000320B910AF9096A09E2086308EA077807EE
:100100000D07A8064806EE0598054805FC04B4044A
:1001100071043104F503BC03860353032303F60281
:10012000CC02A3027D025A0238021802FA01DD0154
:10013000C201A90191017B01650151013E012C0120
:100140001B010B01FC00EE00E100D400C800BD0063
:10015000B200A8009F0096008D0085007E00770009
:1001600070006A0064005E00590054004F004A00AD
:10017000460042003E003B0011241FBECFEFD8E0F6
:10018000DEBFCDBF11E0A0E0B1E0E0E7F8E002C0E3
:1001900005900D92AA31B107D9F721E0AAE1B1E0AB
:1001A00001C01D92A836B207E1F70E9496030C9495
:1001B00036040C9400002091000130910101C90126
:1001C000817099279195819591098827947B36951F
:1001D000279582279327909301018093000108952A
:1001E0001092C5008FE18093C400E0ECF0E08081C4
:1001F0008D7F808380E98093C10086E08093C20078
:1002000008951F920F920FB60F9211242F933F93D0
:100210008F939F93EF93FF938091C60087FF17C042
:1002200091E0909325018C3FB1F140F4803861F06A
:10023000803999F582E0809324012AC08E3F09F429
:1002400047C08F3F41F129C09093240120C0909175
:10025000230119164CF420916701209366018093C5
:10026000670191509093230180912301181684F126
:1002700080916601909124019130A1F49091030145
:10028000891305C0109204018FEF8093030182E06F
:10029000809323011DC0109204011092240110923A
:1002A000230116C09230A1F490916701992331F394
:1002B00091E090930401E82FF0E0EE0FFF1FE85863
:1002C000FF4F259134913093070120930601DDCF34
:1002D000FF91EF919F918F913F912F910F900FBEC2
:1002E0000F901F9018951F920F920FB60F92112426
:1002F0002F933F934F935F936F937F938F939F932E
:10030000AF93BF93EF93FF93809126018730E9F07D
:1003100020916401309165018091640190916501A3
:10032000969587959093650180936401822F8170E3
:1003300020FF0EC0809164019091650190689093B8
:1003400065018093640181E003C00E94DB0081703D
:1003500090910201209104019223892311F0289A9F
:1003600001C02898FF91EF91BF91AF919F918F911C
:100370007F916F915F914F913F912F910F900FBEA1
:100380000F901F901895FC018091780020917900C2
:1003900030E0322F2227280F311D428153816481A2
:1003A0007581420F531F611D711D42835383648306
:1003B00075838091630181110DC085E07695679505
:1003C000579547958A95D1F75183408312821382BE
:1003D0001482158208954091250120911E013091CB
:1003E0001F018091060190910701442339F0220FEB
:1003F000331F220F331F821B930B07C0C296821B31
:10040000930B880F991F880F991F2091210130911C
:10041000220182179307B9F0909322018093210162
:1004200020918400309185008217930720F4109268
:100430008500109284008091210190912201909377
:100440008900809388000895E09105018E2F90E047
:100450008830910508F0ADC0FC01EC5CFF4F809145
:1004600020010C94300490E040911C0150911D013A
:10047000849F9001859F300D949F300D1124232F70
:10048000332730931F0120931E0140912B0150917F
:100490002C01569547958417950708F48AC074C0B7
:1004A00040911C0150911D01849F9001859F300D4A
:1004B000112430931E0110921F017BC040911C013A
:1004C00050911D01849F9001859F300D1124232F91
:1004D00033275AC090E020912B0130912C013695A2
:1004E00027958217930790F00CC090E020912B0184
:1004F00030912C01369527953695279582179307CD
:1005000028F48091290190912A014FC080E090E069
:100510004CC090E020912B0130912C01369527950D
:100520008217930790F440911C0150911D01849F04
:100530009001859F300D949F300D1124C901880FC3
:10054000892F881F990B919530C010921F0110922E
:100550001E012FC090E020912B0130912C01369587
:1005600027958217930788F740911C0150911D0130
:10057000849F9001859F300D949F300D1124220F90
:10058000232F221F330B31958091290190912A014D
:10059000821B930B0AC081110CC00E94DB0060918A
:1005A000290170912A010E941C0490931F018093DD
:1005B0001E012091200130E080912B0190912C01AF
:1005C000969587952817390710F42A9A01C02A981A
:1005D000809120018F5F8093200190E020912B017A
:1005E00030912C018217930710F01092200108958A
:1005F00080911B018F5F80931B01909128018917C7
:1006000010F010921B0181E020911B0190912701B5
:10061000921708F480E08093020180910201882300
:1006200011F02B9A08952B9808958091250181113E
:1006300008C08091450190914601909307018093F5
:1006400006018091570190915801880F892F881FCA
:10065000990B919520912601281791F080932601FE
:10066000E0912601F0E0EE0FFF1FE85FFE4F808172
:100670009181909365018093640181E080931A01D8
:1006800080912D0190912E01880F892F881F990B41
:10069000919520910501281729F08093050181E0AB
:1006A00080931A0180911A01882339F02C98809147
:1006B0001A01815080931A0101C02C9A60913F0168
:1006C00070914001769567957695679570932C01AA
:1006D00060932B018091390190913A01969587950D
:1006E0009695879590932A0180932901611571054C
:1006F00021F0982F80E00E941C0470931D016093EC
:100700001C01809151019091520196958795969583
:1007100087958093280180913301909134019695BB
:10072000879596958795809327010895209A84B19F
:100730008C6184B9559A2C9A80918100886080934D
:10074000810080916F00826080936F0080917A00B9
:10075000876080937A0080917A00806880937A0025
:100760000E94F00078941092050110922601E09109
:100770002601F0E0EE0FFF1FE85FFE4F80819181C0
:1007800090936501809364010E94EB018091810048
:1007900082608093810010926301809163018F5F7A
:1007A00080936301809163018F71809363015D98F1
:1007B0000DE211E0C0E08C2F806480937C0080917A
:1007C0007A00806480937A0080917A0086FDFCCF65
:1007D000C8010E94C301CF5F0A5F1F4FC63059F79F
:1007E0005D9A01E511E0C3E08C2F806480937C006A
:1007F00080917A00806480937A0080917A0086FDEF
:10080000FCCFC8010E94C301CF5F0A5F1F4FC630F3
:1008100059F780916301811102C00E9415030E9463
:1008200024020E94F8020E94EB018FE891E00197F8
:10083000F1F700C00000B1CFAA1BBB1B51E107C0FC
:10084000AA1FBB1FA617B70710F0A61BB70B881F60
:10085000991F5A95A9F780959095BC01CD010895EF
:10086000EE0FFF1F0590F491E02D0994F894FFCF4F
:10087000E1AC01FF0108900100C000FFEFEFDBB623
:0A0880007628D5AAAAAA00000000FD
:00000001FF
