:1000000009C021C020C01FC01EC01DC01CC01BC015
:100010001AC019C011241FBECFE9CDBF10E0A0E661
:10002000B0E0E6E0F2E002C005900D92AA36B1071A
:10003000D9F720E0AAE6B0E001C01D92A237B207CE
:10004000E1F753D0DEC0DCCF90E197B996B1987F4D
:10005000892B86B9379A0895CF93C82F82E0F4DFB1
:1000600097B19F718C2F892B87B9CF9108958336D3
:1000700009F0F2DF369A3699FECF24B185B190E0CF
:10008000982F8827820F911D0895E199FECF1CBA01
:100090008EBB6DBBE29AE19A0895E199FECF8EBBCB
:1000A000E09A8DB308959091710080916B0099232F
:1000B00019F08F5F877004C08150873008F087E0A7
:1000C00080936B0080917000882329F080916B00F1
:1000D0008E7F80936B00E0916B00F0E0EE59FF4F54
:1000E00080818F7080936A00089582E0D6DF9FE060
:1000F00097BB18BA2FEF35EA9EE021503040904070
:10010000E1F700C0000021E0280F2370322F330FE9
:10011000330F81E090E002C0880F991F3A95E2F713
:10012000909361008093600064EF71E059D0EC011E
:10013000622F82E0AADF82E09ADF925090936F00F4
:1001400080936E0021E0181619060CF020E0209331
:100150007100211107C091958195910990936F00CD
:1001600080936E0080916E0090916F00C297909383
:100170006F0080936E0018161906ECF694DF8091DC
:100180006A0088BB29E12A95F1F700C06091600000
:100190007091610080916E0090916F0021D0AE014E
:1001A000481B590B052E000C660B770BDB01CA01AF
:1001B00023E0B595A795979587952A95D1F739E1CD
:1001C0003A95F1F700C084179507A607B7070CF01A
:1001D00018BA415051096109710989F718BAABCFB2
:1001E0000024552704C0080E591F880F991F009737
:1001F00029F076956795B8F37105B9F7802D952F9D
:060200000895F894FFCF01
:0A02060008000A02060405010908B9
:00000001FF
