:100000000EC015C014C013C012C011C010C00FC064
:100010000EC00DC00CC00BC00AC009C008C011241E
:100020001FBECFE5D1E0DEBFCDBF23D036C0E8CFC5
:1000300090E197B996B1987F892B86B9379A089540
:10004000CF93C82F82E0F4DF97B19F718C2F892B5B
:1000500087B9CF910895833609F0F2DF369A369941
:10006000FECF24B185B190E0982F8827820F911D93
:100070000895BB9ABC9AC39A84E0EDDFC8E084E09F
:10008000EADFEFECF7E03197F1F700C000000197ED
:0E009000C1F788B38C2788BBF2CFF894FFCF5E
:00000001FF
