:100000000EC028C027C026C025C0CBC023C022C038
:100010001AC120C01FC01EC01DC01CC01BC011249F
:100020001FBECFE5D1E0DEBFCDBF10E0A0E6B0E05F
:10003000E0E8F2E002C005900D92A23AB107D9F7CC
:1000400020E0A2EAB0E001C01D92A83AB207E1F7B1
:1000500075D014C1D5CF16B813B8399A3D9A86B168
:10006000856086B9359A339A379A0895C198C298AF
:10007000C098C19A089531E020E12150422F477085
:10008000E32FF0E0EC55FF4F808190E0042E02C09A
:10009000959587950A94E2F780FF02C0C09A01C047
:1000A000C098C298C29A4111E8CF31502111E5CFD2
:1000B000DDCF90E191502091A200222319F0891701
:1000C00018F404C0891302C0C09A01C0C098C29835
:1000D000C29A9111EFCFCACFE4EAF0E01182108208
:1000E00008956091A20090E141E050E0915021E03C
:1000F000662319F0891718F401C0891320E0E92F4D
:10010000F0E033E0F595E7953A95E1F7EC55FF4FD0
:10011000392F3770DA0102C0AA0FBB1F3A95E2F7F8
:10012000222321F09D013081232B04C09D012095C5
:100130003081232320839111D9CF089587E087BB95
:100140008AE188BB81E083BF82E089BF84DF789445
:10015000369A96B393FB992790F98091A20098174D
:1001600031F08091A3008F5F83708093A300909300
:10017000A2008FEC97E00197F1F700C0000080919A
:10018000A6009091A70001969093A7008093A600E7
:100190008091A6009091A7001092A7001092A6004F
:1001A000D8CF1F920F920FB60F9211242F933F9327
:1001B0004F935F936F937F938F939F93AF93BF936F
:1001C000EF93FF938091A300823028F48091600028
:1001D000909161006EDF8091A300823041F4E09144
:1001E000A600F091A700EE59FF4F808162DF809159
:1001F000A3008330B9F4E091A600F091A700EE0FC0
:10020000FF1FEE57FF4F80818093A400E091A6006E
:10021000F091A700EE0FFF1FEE57FF4F81818093F3
:10022000A50029DFFF91EF91BF91AF919F918F9131
:100230007F916F915F914F913F912F910F900FBEE2
:100240000F901F9018951F920F920FB60F921124C6
:100250008F939F9385B190E0689413F89595879557
:100260001694E1F79093610080936000369A9F9115
:100270008F910F900FBE0F901F901895F894FFCF9D
:10028000030008090B0C0D0E0F0F100F0F0E0D0CB5
:100290000B0907060403020100000000000102032D
:1002A0000406FFFFFFFFFFF38F8D670ED9008E82DC
:1002B000BEC82EC434E021E0A9E1EDE1F3F1FFFF77
:0202C000FFFF3E
:00000001FF
