:100000000EC028C027C026C025C056C123C022C0AC
:1000100021C020C01FC01EC01DC01CC01BC0112499
:100020001FBECFE5D1E0DEBFCDBF10E0A0E6B0E05F
:10003000E6E1F3E002C005900D92AA36B107D9F7C8
:1000400020E0AAE6B0E001C01D92A037B207E1F7B8
:1000500022D15FC1D5CF90E197B996B1987F892B16
:1000600086B9379A0895CF93C82F82E0F4DF97B10D
:100070009F718C2F892B87B9CF910895833609F012
:10008000F2DF369A3699FECF24B185B190E0982FF1
:100090008827820F911D089580936F0060936D00F3
:1000A00040936C0097B321E030E0F90102C0EE0FFD
:1000B000FF1F4A95E2F79E2BA90101C0440F6A95E4
:1000C000EAF7492BB90102C0660F771F8A95E2F75C
:1000D000CB01842B87BB88B300906C0002C0220F39
:1000E000331F0A94E2F7282B28BB089528B381E038
:1000F00090E000906C0002C0880F991F0A94E2F70C
:100100008095822388BB089548B381E090E09C01EC
:1001100000906C0002C0220F331F0A94E2F7242BD8
:1001200028BB28B300906F0002C0880F991F0A9463
:10013000E2F78095822388BB089548B321E030E040
:10014000B90100906F0002C0660F771F0A94E2F7B2
:10015000962F9095942398BB90916D00882339F049
:1001600088B301C0220F9A95EAF7282B07C088B3FD
:1001700001C0220F9A95EAF72095282328BB28B3BF
:1001800081E090E000906F0002C0880F991F0A94F0
:10019000E2F7822B88BB08950F931F93CF93082F0C
:1001A000A5DFC8E010E0C150C8010C2E02C0959533
:1001B00087950A94E2F78170C0DFC111F4CFCF9127
:1001C0001F910F91A1CF0F931F93CF938C018EDFBF
:1001D000C0E1C150C8010C2E02C0969587950A94C3
:1001E000E2F78170AADFC111F4CFCF911F910F9177
:1001F0008BCFCF92DF92EF92FF92CF936B017C0176
:1002000075DFC0E2C150D701C6010C2E04C0B695FF
:10021000A795979587950A94D2F781708EDFC111C3
:10022000F1CFCF91FF90EF90DF90CF906DCF809185
:10023000610098E061E070E09150492F50E0282F74
:1002400030E0092E02C0359527950A94E2F7FA01AD
:10025000EE59FF4F20FF0EC020812F5F20832F3FDC
:10026000A9F49B01092E01C0220F0A94EAF72095F8
:1002700082230CC0208121502083211107C09B01C3
:10028000092E01C0220F0A94EAF7822B9111D4CFD4
:100290008093610008958FE087BB81E088BB83BFB6
:1002A00089B7826089BF7894C2DF8FEF9CE701979E
:1002B000F1F700C00000F8CF1F920F920FB60F9217
:1002C00011242F938F939F93EF93FF9380916A0054
:1002D0008F5F80936A0018BA88E0815090916A001D
:1002E000E82FF0E0EE59FF4F2081921710F4C19AE9
:1002F00001C0C198C29AC2988111EFCFC09AFF91F4
:10030000EF919F918F912F910F900FBE0F901F90A3
:060310001895F894FFCFE0
:0A031600019D642C6416071442498F
:00000001FF
