:1000000009C016C015C014C013C012C011C010C062
:100010000FC00EC011241FBECFE9CDBF20E0A0E667
:10002000B0E001C01D92A336B207E1F723D03EC075
:10003000E7CF90E197B996B1987F892B86B9379A27
:100040000895CF93C82F82E0F4DF97B19F718C2F72
:10005000892B87B9CF910895833609F0F2DF369A5C
:100060003699FECF24B185B190E0982F8827820F72
:10007000911D08958EE087BB83E088BB2CE08091C2
:1000800060008F5F8093600086B381709091610003
:10009000891719F098B3922798BB809361008FEB72
:1000A0009DE50197F1F700C00000E9CFF894FFCF7C
:00000001FF
