:100000000EC01DC01CC01BC01AC019C018C017C02C
:1000100016C015C014C013C012C011C010C01124E6
:100020001FBECFE5D2E0DEBFCDBF22E0A0E6B0E04C
:1000300001C01D92A036B207E1F746D068C0E0CFFC
:1000400090E197B996B1987F892B86B9379A089530
:10005000CF93C82F82E0F4DF97B19F718C2F892B4B
:1000600087B9CF910895833609F0F2DF369A369931
:10007000FECF24B185B190E0982F8827820F911D83
:10008000089598B3966098BB20E030E090E070E06F
:1000900042E14A95F1F700C0821793070CF4C1982A
:1000A000621773070CF4C2982F5F3F4F211541E090
:1000B000340771F788B3897F88BB8FE19EE401978D
:1000C000F1F700C00000089586E087BB81E088BB9F
:1000D00083E0B6DF60E080E0D4DF2FEF80E792E0DE
:1000E000215080409040E1F700C00000C0E06C2F3C
:1000F00070E075956795759567958C2FC2DF8FE5D4
:100100009AEE0197F1F700C00000CF5FF0CFF894AE
:02011000FFCF1F
:00000001FF
