:1000000009C021C03BC01FC01EC01DC01CC01BC0FA
:100010001AC019C011241FBECFE9CDBF10E0A0E661
:10002000B0E0E0EEF0E002C005900D92A836B10716
:10003000D9F720E0A8E6B0E001C01D92AA36B207C9
:10004000E1F70FD04BC0DCCFE0916900EF5FE770C4
:10005000E0936900F0E0E05AFF4F8081806F88BB39
:1000600008958FE087BB80E188BB81E080936800C2
:10007000AC9A8BB780628BBF7894FFCF1F920F92A0
:100080000FB60F9211242F933F934F935F936F936B
:100090007F938F939F93AF93BF93EF93FF93909131
:1000A000680081E089278093680080916800882338
:1000B00019F080E188BB01C0C7DFFF91EF91BF91CC
:1000C000AF919F918F917F916F915F914F913F91F0
:1000D0002F910F900FBE0F901F901895F894FFCF9F
:0800E000AA226644551199881B
:00000001FF
