:1000000009C021C020C01FC01EC01DC01CC01BC015
:100010001AC07FC011241FBECFE9CDBF10E0A0E6FB
:10002000B0E0E8E5F1E002C005900D92A836B10716
:10003000D9F720E0A8E6B0E001C01D92AF36B207C4
:10004000E1F726D087C0DCCF16B813B8399A3D9AAD
:1000500086B1856086B9359A339A379A089590911A
:100060006D0080916E00992319F08F5F877005C035
:10007000882311F0815001C087E080936E00E091E9
:100080006E00F0E0E05AFF4F80818F7088BB0895CA
:100090008FE087BB88B3807F88BBD6DF7894369AA1
:1000A000C0E8D0E011E00FEF809168009E01281BAE
:1000B0003109C90137FF03C000936D0007C00097E5
:1000C00019F410926D0002C010936D0060916D00E4
:1000D000062E000C770B2DD090936A008093690058
:1000E0000B979CF0BCDF8091690090916A00FE0143
:1000F000E81BF90BCF010197EFE5F9E03197F1F734
:1001000000C000000097B9F7CFCF88B3807F88BBCD
:10011000CBCF1F920F920FB60F9211248F9385B100
:1001200080936800369A8F910F900FBE0F901F90AA
:1001300018950024552704C0080E591F880F991FD1
:10014000009729F076956795B8F37105B9F7802D7A
:08015000952F0895F894FFCFEC
:08015800AA22664455119988A2
:00000001FF
