:1000000009C021C020C073C01EC01DC01CC01BC0C1
:100010001AC019C011241FBECFE9CDBF10E0A0E661
:10002000B0E0E2E3F1E002C005900D92A236B10724
:10003000D9F720E0A2E6B0E001C01D92A636B207D3
:10004000E1F72FD074C0DCCF90E197B996B1987FDB
:10005000892B86B9379A0895CF93C82F82E0F4DFB1
:1000600097B19F718C2F892B87B9CF9108958336D3
:1000700009F0F2DF369A3699FECF24B185B190E0CF
:10008000982F8827820F911D089590916300E82F83
:10009000F0E0E05AFF4F81E02081291708F480E06A
:1000A000089583E087BB88B38C7F88BB84E083BFDF
:1000B00089B7826089BF789482E0D9DF9093650028
:1000C0008093640095958795959587950197EFE5C1
:1000D000F9E03197F1F700C000000097B9F780917F
:1000E00062008F5F8093620080936000E5CF1F9273
:1000F0000F920FB60F9211248F939F9380916300FC
:100100008F5F809363008091630080936300809190
:10011000630090916000981710F0C09A01C0C098D9
:100120009F918F910F900FBE0F901F901895F8948C
:02013000FFCFFF
:0201320064C89F
:00000001FF
