:1000000065C07FC068C27DC07CC07BC07AC079C03B
:1000100078C077C076C075C074C073C072C012015A
:10002000100100000008C016E405010001020001F3
:10003000090265000201000032090400000001010C
:100040000000092401000109000101090401000266
:100050000103000007240100014100062402010100
:100060000006240202020009240301030102010028
:100070000924030204010101000905010308000A23
:10008000000005250101010905810308000A00009F
:1000900005250101030403090420036D0061006BC1
:1000A0000065002D006D006100670061007A006945
:1000B000006E002E00640065001203740069006E7B
:1000C0000079004D004900440049000011241FBE82
:1000D000CFE5D2E0DEBFCDBF10E0A0E6B0E0E6E9BC
:1000E000F7E002C005900D92A236B107D9F710E0F3
:1000F000A2E6B0E001C01D92AA39B107E1F760D0D5
:1001000048C37ECFFC018381813041F48EE190E0D1
:1001100090937F0080937E0082E1089580E390E0D9
:1001200090937F0080937E0085E60895FC01E08136
:100130008E2F8076803229F4E7FD03C081E0809322
:1001400062008FEF0895FC011082118212821382E7
:1001500014821582168287E0089581E0089508953B
:10016000877087B987B187B9369A3699FECF24B19F
:1001700035B1C9010895DF93CF9300D000D0CDB73A
:10018000DEB7982F1092620080916F0084FD02C04C
:1001900080E00FC04C836B839A83892F82958F7088
:1001A0009295907F890F8983CE01019664E055D1A5
:1001B00081E00F900F900F900F90CF91DF910895F5
:1001C000FF920F931F9387EE88BB88E187BB17BA16
:1001D00086E886B9B89AB99888B318BA26D010922A
:1001E00062007894FF2480E016B31270181751F063
:1001F000112321F480E96EE34FE703C080E86EE34A
:1002000040E0B9DF81E0ACDFAC0183E05695479573
:100210008A95E1F7042FF41619F080EB67E0ABDF65
:100220000FD0A895812FF02EDFCFAB9A8BB78062CD
:100230008BBF8BE4809370008AE580936F000895F4
:100240001F93CF93DF9390918000935097FDABC0A5
:1002500020917D0080917C008D3209F0A2C0983001
:1002600009F09FC0CCE0D0E0C21BD109CC57DF4FD2
:1002700083EC809364008AE58093600010926300B1
:100280009881892F807621F0CE0150DF282F80C001
:100290002A813C8110926D008981882381F49F71AD
:1002A000923049F4313839F480916F008E3119F46D
:1002B00081E080936D0010926E0022E063C0813077
:1002C00011F0833089F4222309F05BC0313809F042
:1002D00058C0813011F08EE101C08AE580936F0033
:1002E0008BE4809370004DC0853019F42093810019
:1002F00048C0863079F58B81813011F0823021F44D
:10030000CE0100DF282F22C08330F9F48A818823B0
:1003100041F485E990E090937F0080937E0024E093
:1003200015C0813041F489E990E090937F0080937B
:100330007E0020E20BC0823041F489EB90E0909384
:100340007F0080937E0022E101C020E080E4809362
:1003500063001EC0883021F421E083E890E014C0DF
:10036000893019F42093830009C08A3011F421E008
:1003700009C08B3031F48BE4809370008AE5809360
:100380006F0020E08DE690E090937F0080937E00E8
:100390008F81882321F48E81821708F4282F2093DF
:1003A0006100109280008091600084FF45C08091C0
:1003B00061008F3F09F440C0182F893008F018E021
:1003C000811B809361008091640098E88927809365
:1003D0006400112321F120917E0030917F008091F3
:1003E000630086FF0AC0912FF901A5E6B0E0849171
:1003F0008D9331969150D9F708C0912FD901E5E638
:10040000F0E08D9181939150E1F7C901019611506F
:10041000810F911D1F5F90937F0080937E0085E682
:1004200090E0612F54D0612F6C5F6C3019F08FEF2A
:10043000809361006093600094E186B3887149F411
:100440009150D9F71092810010927B008AE5809339
:100450006F00DF91CF911F9108951F93DC01162F3C
:1004600080916F008E31E1F080916F0084FF07C0B2
:100470008091700098E889278093700003C08AE516
:1004800080936F00912FE1E7F0E08D91819391507F
:10049000E1F781E790E0612F1AD01C5F10936F00A5
:1004A0001F910895A82FB92F80E090E041E050EA15
:1004B000609530E009C02D9182279795879510F0BF
:1004C00084279527305EC8F36F5FA8F30895EADFAD
:1004D0008D939D930895CF93CFB7CF93C395B49B3E
:1004E000E9F7B49B0BC0B49B09C0B49B07C0B49B95
:1004F00005C0B49B03C0B49B01C0D5C00F92DF936D
:10050000C0917D00DD27CC57DF4F012EB49B03C087
:10051000DF910F90E6CF2F930F931F934F932FEF01
:100520004F6F06B304FB20F95F933F9350E03BE02D
:1005300065C016B30126502954FDC89556B301274E
:1005400004FB25F92F7306B3B1F05027102714FBD5
:1005500026F906B22230F0F000C016B3012704FBE2
:1005600027F90126502906B22430E8F54F77206894
:1005700016B30000F6CF50274F7D206206B2102F31
:10058000000000C006B300265029102714FB26F9EE
:1005900006B2E2CF4F7B06B3206400C0DACF01265B
:1005A0005029187106B269F14E7F2160012F16B3F0
:1005B00028C0002650294D7F06B22260102F29C086
:1005C000012650294B7F06B22460012F2DC016B39F
:1005D00001265029477F2860000006B22EC04F7EBA
:1005E00006B3206130C0422706B349930026502944
:1005F000102706B24FEF14FB20F9297F16B379F2CA
:10060000187159F10126502906B2012704FB21F97E
:10061000237F06B371F2002650293150D0F006B284
:10062000102714FB22F9277E16B351F20126502918
:10063000012704FB06B223F92F7C49F2000006B320
:10064000102714FB24F90026502906B22F7939F21D
:1006500070CF10E21ABF002719C03B503195C31B61
:10066000D04010E21ABF0881033C09F10B34F9F0C5
:1006700020917B001981110F1213EDCF4A81441F85
:10068000093651F10D3211F0013E29F70093820035
:100690003F915F914F911F910F912F91DF910F909B
:1006A000CAB7C5FD1BCFCF91CFBFCF911895209171
:1006B0008200222369F310918000112379F53430F0
:1006C0007AF13093800020937C0010917D003BE014
:1006D000311B30937D0024C0009180000130F4F480
:1006E0000AE54F7049F43091600034FD1AC0009360
:1006F0006000C4E6D0E019C030916F0034FD11C035
:1007000000936F00C0E7D0E010C0052710E000C0E4
:1007100021C0052710E0C89508BB14C03AE501C008
:1007200032ED032EC0E0D0E032E017B31861C49A76
:1007300008B317BB58E120E84FEF20FF052708BB9F
:10074000279517951C3F28F700004552B0F720FF6A
:100750000527279508BB17951C3FB8F629913A95B0
:1007600061F7077E10918100110F08BBC250D04085
:1007700011F010937B0010E21ABF006117B3177ECF
:10078000402F477E54E05A95F1F708BB17BB48BB92
:060790007FCFF894FFCFBB
:020796005AFF08
:00000001FF
