:100000000C9434000C9451000C9451000C94510049
:100010000C9451000C9451000C9451000C9451001C
:100020000C9451000C9451000C9451000C94B002AB
:100030000C9451000C9451000C9451000C945100FC
:100040000C9451000C9451000C9470010C945100CC
:100050000C9451000C9451000C9451000C945100DC
:100060000C9451000C94510011241FBECFEFD8E026
:10007000DEBFCDBF11E0A0E0B1E0EEE2F6E002C0ED
:1000800005900D92AA31B107D9F711E0AAE1B1E0CC
:1000900001C01D92A734B107E1F70E940A020C9437
:1000A00015030C94000090E190937C00EAE7F0E0E7
:1000B0009081987F892B80838081806880830895D8
:1000C000CF93C82F82E00E945300ECE7F0E09081CC
:1000D0009F718C2F892B8083CF910895833611F0E7
:1000E0000E94600080917A00806480937A00809101
:1000F0007A0086FDFCCF209178008091790090E015
:10010000982F8827820F911D089580934601609350
:100110004501409344012093430194B161E070E0B4
:10012000FB0102C0EE0FFF1F2A95E2F79E2B9B01F9
:1001300001C0220F4A95EAF7292BAB0102C0440FF8
:10014000551F8A95E2F7CA01822B84B994B19B01AD
:100150000090450102C0220F331F0A94E2F7822F5C
:100160008095892384B985B10090430102C0660F50
:10017000771F0A94E2F7682B65B90895E82F95B1C7
:1001800021E030E00090430102C0220F331F0A94A7
:10019000E2F72095292325B923B130E000904501ED
:1001A00002C0359527950A94E2F7822F817098E076
:1001B00041E050E0F0E09150880F35B1BA01009075
:1001C000460102C0660F771F0A94E2F7262F20959A
:1001D000232325B99F01092E02C0359527950A943E
:1001E000E2F76091440120FF08C075B19A0101C097
:1001F000220F6A95EAF7272B0AC035B1DA0102C04F
:10020000AA0FBB1F6A95E2F72A2F2095232325B951
:1002100023B130E00090450102C0359527950A943E
:10022000E2F720FD8160A5B121E030E0BA01009045
:10023000460102C0660F771F0A94E2F76A2B65B980
:100240009111B9CF95B1A9010090430102C0440FAB
:10025000551F0A94E2F7492B45B995B10090460124
:1002600002C0220F331F0A94E2F72095292325B9F3
:1002700008951092C50084E48093C400E0ECF0E09F
:1002800080818D7F808386E88093C20088E9809397
:10029000C10008959091C00095FFFCCF8093C600E7
:1002A0000895CF93DF9300D0CDB7DEB7807F9091D4
:1002B0000101892B4A8369830E944A016981862F43
:1002C0000E944A014A81842F0F900F90DF91CF91B5
:1002D0000C944A01E0E4F1E0108211821282089548
:1002E0001F920F920FB60F9211248F93EF93FF93EB
:1002F0008091C60080933F0180913F018F7721F06C
:1003000080913E01882399F0E0913E0180913F0168
:10031000F0E0E05CFE4F808380913E018F5F809330
:100320003E0180913E01837080933E010CC0E091BC
:100330003E0181E08E0F80933E0180913F01F0E00D
:10034000E05CFE4F8083FF91EF918F910F900FBE85
:100350000F901F901895969587959C0140E050E06E
:1003600060E074E284EF90E00E94F30280918400E8
:10037000909185002817390720F41092850010927B
:1003800084003093890020938800089520911B01F8
:1003900030E02F5F3F4F80911C01837090E0019609
:1003A0006AE0689FA001699F500D1124249FC0013D
:1003B000259F900D349F900D1124E8E8F0E0918383
:1003C000808380819181880F991F91838083089514
:1003D000CF93DF93EC0189816CE00E94D302682FF8
:1003E000E92FF0E0EE0FFF1FEE5FFE4F808191815D
:1003F00070E06F5F7F4F0E94DF027093890060930F
:10040000880081E088834B81698180E9DF91CF9109
:100410000C945101E1E2F1E080E0C1E06FE770E0AF
:1004200024E6DF011397CC93119635E4380F982F0B
:100430009170930F9C931196982F9370AB0102C00B
:10044000559547959A95E2F74C9320838F5F3496A4
:10045000883039F78AE08093810082E080936F00D2
:1004600080E00E94530022E043E064E085E00E94C7
:1004700085000E943901209A8AB18F708AB98BB1A8
:10048000806F8BB9789482E291E00E94E80101E0EC
:1004900010E03FEEF32EE9B04E9909C00E94C6016C
:1004A0008FE39CE90197F1F700C00000F4CFC09101
:1004B0001C0190911B019F5F9F7790931B0184E02B
:1004C000C89FE0011124FE01E25EFE4F8281981375
:1004D00006C0108240E0618180E80E945101809155
:1004E0001B01811121C080911C018F5F883019F0A0
:1004F00080931C0102C010921C01E7FC10C080E038
:100500000E946E0025E0969587952A95E1F7FE01F9
:10051000E25EFE4F8C5E8D3308F08CE38183CE016A
:10052000825E9E4F0E94E801C80100901C0102C03B
:10053000880F991F0A94E2F790911A01892B8F2551
:100540000E94BE0080931A0180E0909100018917FB
:1005500008F0A1CF9AEA9A95F1F700C08F5FF5CF26
:100560001F920F920FB60F9211248F939F93EF93C8
:10057000FF93E0911C0184E0E89FF0011124E25E0A
:10058000FE4F8081882329F095B181E0892785B9C4
:1005900001C02898FF91EF919F918F910F900FBE0E
:1005A0000F901F901895991B79E004C0991F96171A
:1005B00008F0961B881F7A95C9F780950895AA1BA5
:1005C000BB1B51E107C0AA1FBB1FA617B70710F03E
:1005D000A61BB70B881F991F5A95A9F78095909570
:1005E000BC01CD010895A1E21A2EAA1BBB1BFD017F
:1005F0000DC0AA1FBB1FEE1FFF1FA217B307E40702
:10060000F50720F0A21BB30BE40BF50B661F771F59
:10061000881F991F1A9469F7609570958095909539
:0E0620009B01AC01BD01CF010895F894FFCFFE
:10062E00C8010B8E1E86847E8077D070796A7B64BB
:0A063E00D75E8A597554B84F354B4A
:00000001FF
