:100000000C94B4000C94D1000C94D1000C94D10049
:100010000C94D1000C94D1000C94D1000C94D1001C
:100020000C94D1000C94D1000C94D1000C946E016E
:100030000C94D1000C94D1000C94D1000C94D100FC
:100040000C94D1000C94D1000C94FA000C94D100C3
:100050000C94D1000C94D1000C94D1000C94D100DC
:100060000C94D1000C94D100FFFFFFFFFFFFFFFFB6
:10007000FFFFFFFF61FD28EFBCE110D51BC9D1BD1B
:100080002AB31CA99E9FA896348E3886B07E94779A
:10009000DD70886A8D64E85E95598D54CE4F544B5F
:1000A00019471C43573FC93B6E3843354632742FBE
:1000B000CA2C462AE727A9258C238D21AB1FE41DD6
:1000C000371CA11A2319B91764162315F313D41278
:1000D000C611C610D50FF20E1B0E500D910CDC0B85
:1000E000320B910AF9096A09E2086308EA077807FE
:1000F0000D07A8064806EE0598054805FC04B4045B
:1001000071043104F503BC03860353032303F60291
:10011000CC02A3027D025A0238021802FA01DD0164
:10012000C201A90191017B01650151013E012C0130
:100130001B010B01FC00EE00E100D400C800BD0073
:10014000B200A8009F0096008D0085007E00770019
:1001500070006A0064005E00590054004F004A00BD
:10016000460042003E003B0011241FBECFEFD8E006
:10017000DEBFCDBF11E0A0E0B1E0EAE7FBE002C0E6
:1001800005900D92AA31B107D9F711E0AAE1B1E0CB
:1001900001C01D92A836B107E1F70E9426040C9415
:1001A000BB050C94000080911801909119019C01ED
:1001B00021703070309521953F4F2070347B96959B
:1001C0008795282739273093190120931801C901F1
:1001D00008951092C50087E18093C400E0ECF0E040
:1001E00080818D7F808380E98093C10086E0809349
:1001F000C20008951F920F920FB60F9211242F93F1
:100200008F939F93EF93FF938091C60087FD32C039
:1002100090915A011916ACF4209167012093660160
:1002200080936701915090935A01992361F0FF9157
:10023000EF919F918F912F910F900FBE0F901F9074
:1002400018952091660180915901813031F08230FA
:1002500071F780916701882379F5809104018217F5
:1002600029F4109203018FEF8093040182E08093C0
:100270005A01DDCF91E0909358018C3F81F08D3F82
:1002800050F4803899F0803961F482E0809359010C
:1002900080935A01CCCF8E3F51F28F3F11F41092D0
:1002A00003011092590110925A01C1CF9093590144
:1002B00082E080935A01BBCF81E080930301E22F5B
:1002C000F0E0EE0FFF1FE859FF4F85919491809366
:1002D00000019093010120930401C8CF1F920F9257
:1002E0000FB60F9211242F933F938F939F9380917A
:1002F0005701873089F12091640130916501809127
:10030000640190916501969587959093650180931E
:10031000640120FF13C08091640190916501906891
:10032000909365018093640181E020910501909193
:1003300003019223982331F0289A05C0809105018A
:100340008091030128989F918F913F912F910F9059
:100350000FBE0F901F901895209118013091190130
:10036000C90181709070909581959F4F8070947BAA
:10037000369527958227932790931901809318012A
:100380008170D3CFFC018091780090917900392F52
:1003900020E0280F311D40E050E0628173818481AC
:1003A0009581260F371F481F591F228333834483AB
:1003B000558380911A01882369F465E05695479525
:1003C000379527956A95D1F731832083128213825E
:1003D00014821582089580915801882349F1209153
:1003E0005E0130915F01220F331F220F331F809176
:1003F000000190910101821B930B20915B013091D0
:100400005C018217930799F090935C0180935B01E4
:1004100020918400309185008217930720F4109278
:10042000850010928400909389008093880008953D
:100430008091000190910101C29620915E0130915E
:100440005F01821B930B880F991F880F991FD5CFCF
:1004500080910201833009F430C1843030F185305D
:1004600009F453C0853008F475C0863009F4DFC044
:10047000873009F4AFC020915D01422F50E0809198
:10048000510190915201BC01769567954617570727
:1004900008F45EC02A982F5F20935D0130E0281792
:1004A000390710F010925D010895813009F4EAC017
:1004B000823008F06CC020915D01422F50E08091A5
:1004C000600190916101489FB001499F700D589F54
:1004D000700D1124672F772770935F0160935E0181
:1004E0008091510190915201FC01F695E7954E17CC
:1004F0005F0770F14091530150915401461B570B17
:1005000050935F0140935E01C5CF20915D01422F62
:1005100050E08091510190915201BC017695679510
:100520004617570708F0E0C0E0916001F0916101C3
:100530004E9FB0014F9F700D5E9F700D1124660F8E
:10054000672F661F770B719570935F0160935E0153
:100550002A9AA1CF20915D01422F50E08091510154
:1005600090915201BC0176956795769567954617EF
:10057000570708F0BEC06091530170915401709309
:100580005F0160935E01BC01769567957FCF2091F6
:100590005D01422F50E08091600190916101489F80
:1005A000B001499F700D589F700D1124672F772758
:1005B0008091530190915401861B970B90935F019A
:1005C00080935E018091510190915201BC0176951A
:1005D00067955CCF20915D01222309F04ECF4091B9
:1005E000180150911901CA01817090709095819500
:1005F0009F4F8070947B56954795842795279093BD
:1006000019018093180160915301709154010E9467
:10061000A70590935F0180935E01809151019091B5
:100620005201BC017695679540E050E02FCF2091B4
:100630005D01422F50E08091510190915201BC0127
:10064000769567954617570708F04EC0E091600110
:10065000F09161014E9FB0014F9F700D5E9F700D34
:100660001124660F672F661F770B71954091530118
:1006700050915401461B570B50935F0140935E010C
:100680002A9A09CF20915D01422F50E060916001CC
:1006900070916101469FC001479F900D569F900D3C
:1006A000112490935E0110925F018091510190910D
:1006B0005201BC0176956795E9CE20915D01422FEC
:1006C00050E08091510190915201BC01769567955F
:1006D0004617570788F0E0915301F0915401F093C9
:1006E0005F01E0935E01D2CE10925F0110925E0135
:1006F000D1CE60E070E043CFE0E0F0E0F0CF809159
:1007000062018F5F8093620190915501891768F4AF
:1007100091E020915601281798F09093050180915F
:100720000501882359F42B9808951092620191E0F5
:1007300090930501809105018823A9F32B9A0895D0
:1007400090E0EBCF80915801882341F480913301F0
:1007500090913401909301018093000180914501B3
:1007600090914601880F892F881F990B91952091B0
:100770005701281791F080935701E0915701F0E05D
:10078000EE0FFF1FEA5FFE4F80819181909365011C
:100790008093640181E08093630180911B019091BB
:1007A0001C01880F892F881F990B919520910201B8
:1007B000281709F444C08093020181E0809363010B
:1007C0002C9881508093630160912D0170912E01CE
:1007D0007695679576956795709352016093510170
:1007E00080912701909128019695879596958795F8
:1007F000909354018093530161157105E9F0982F8E
:1008000080E00E94A7057093610160936001809170
:100810003F01909140019695879596958795809395
:100820005501809121019091220196958795969589
:10083000879580935601089560E070E0E4CF809141
:100840006301882309F0BCCF2C9ABECFEF92FF92B0
:100850000F931F93CF93DF93209A84B18C6184B957
:10086000559A2C9A809181008860809381008091B4
:100870006F00826080936F0080917A008760809320
:100880007A0080917A00806880937A001092C50087
:1008900087E18093C4008091C0008D7F8093C00069
:1008A00080E98093C10086E08093C2007894109222
:1008B000020110925701E0915701F0E0EE0FFF1F87
:1008C000EA5FFE4F8081918190936501809364017E
:1008D00080915801882309F42AC120915E0130914A
:1008E0005F01220F331F220F331F8091000190916F
:1008F0000101821B930B20915B0130915C01281751
:100900003907B9F090935C0180935B0120918400DA
:10091000309185008217930720F410928500109281
:10092000840080915B0190915C0190938900809399
:1009300088008091810082608093810010921A016A
:1009400080911A018F5F80931A0180911A018F7133
:1009500080931A015D98EBE1F1E060E0862F8064FE
:1009600080937C0080917A00806480937A008091EB
:100970007A0086FDFCCF809178009091790020E08C
:10098000E9017E01E80EF11CC701A0E0B0E0228180
:10099000338144815581820F931FA41FB51F828329
:1009A0009383A483B58320911A01222369F415E06F
:1009B000B695A795979587951A95D1F791838083DA
:1009C00012821382148215826F5F3696663031F67A
:1009D0005D9AEFE3F1E063E0862F806480937C0012
:1009E00080917A00806480937A0080917A0086FDFD
:1009F000FCCF8091780090917900192F00E0980148
:100A0000280F311DC901A0E0B0E02281338144816B
:100A10005581820F931FA41FB51F82839383A483E4
:100A2000B58320911A01222369F475E0B695A79544
:100A3000979587957A95D1F7918380831282138257
:100A4000148215826F5F3696663031F680911A01F6
:100A5000882309F469C00E942802809162018F5F97
:100A60008093620190915501891708F051C091E07F
:100A700020915601281708F490E090930501809189
:100A80000501882309F04EC02B98809158018823D6
:100A900079F120915E0130915F01220F331F220F07
:100AA000331F8091000190910101821B930B2091D3
:100AB0005B0130915C012817390799F090935C0134
:100AC00080935B0120918400309185008217930709
:100AD00020F41092850010928400909389008093F6
:100AE00088008BE291E00197F1F700C0000028CF69
:100AF0008091000190910101C29620915E01309198
:100B00005F01821B930B880F991F880F991FCFCF0E
:100B10001092620191E09093050180910501882374
:100B200009F4B2CF2B9AB1CF0E94A20394CF809147
:100B3000000190910101C29620915E0130915F0108
:100B4000821B930B880F991F880F991FD4CEAA1B65
:100B5000BB1B51E107C0AA1FBB1FA617B70710F0A8
:100B6000A61BB70B881F991F5A95A9F780959095DA
:0A0B7000BC01CD010895F894FFCFF9
:100B7A0090010801FF0100C000FFEFEFDBB6762805
:0A0B8A00D5AAAAAA00000000E1AC01
:00000001FF
